{
  "_format": "hh-sol-artifact-1",
  "contractName": "Domains",
  "sourceName": "contracts/Domains.sol",
  "abi": [
    {
      "inputs": [
        {
          "internalType": "string",
          "name": "_tld",
          "type": "string"
        }
      ],
      "stateMutability": "payable",
      "type": "constructor"
    },
    {
      "inputs": [],
      "name": "AlreadyRegistered",
      "type": "error"
    },
    {
      "inputs": [
        {
          "internalType": "string",
          "name": "name",
          "type": "string"
        }
      ],
      "name": "InvalidName",
      "type": "error"
    },
    {
      "inputs": [],
      "name": "Unauthorized",
      "type": "error"
    },
    {
      "anonymous": false,
      "inputs": [
        {
          "indexed": true,
          "internalType": "address",
          "name": "owner",
          "type": "address"
        },
        {
          "indexed": true,
          "internalType": "address",
          "name": "approved",
          "type": "address"
        },
        {
          "indexed": true,
          "internalType": "uint256",
          "name": "tokenId",
          "type": "uint256"
        }
      ],
      "name": "Approval",
      "type": "event"
    },
    {
      "anonymous": false,
      "inputs": [
        {
          "indexed": true,
          "internalType": "address",
          "name": "owner",
          "type": "address"
        },
        {
          "indexed": true,
          "internalType": "address",
          "name": "operator",
          "type": "address"
        },
        {
          "indexed": false,
          "internalType": "bool",
          "name": "approved",
          "type": "bool"
        }
      ],
      "name": "ApprovalForAll",
      "type": "event"
    },
    {
      "anonymous": false,
      "inputs": [
        {
          "indexed": true,
          "internalType": "address",
          "name": "from",
          "type": "address"
        },
        {
          "indexed": true,
          "internalType": "address",
          "name": "to",
          "type": "address"
        },
        {
          "indexed": true,
          "internalType": "uint256",
          "name": "tokenId",
          "type": "uint256"
        }
      ],
      "name": "Transfer",
      "type": "event"
    },
    {
      "inputs": [
        {
          "internalType": "address",
          "name": "to",
          "type": "address"
        },
        {
          "internalType": "uint256",
          "name": "tokenId",
          "type": "uint256"
        }
      ],
      "name": "approve",
      "outputs": [],
      "stateMutability": "nonpayable",
      "type": "function"
    },
    {
      "inputs": [
        {
          "internalType": "address",
          "name": "owner",
          "type": "address"
        }
      ],
      "name": "balanceOf",
      "outputs": [
        {
          "internalType": "uint256",
          "name": "",
          "type": "uint256"
        }
      ],
      "stateMutability": "view",
      "type": "function"
    },
    {
      "inputs": [
        {
          "internalType": "string",
          "name": "",
          "type": "string"
        }
      ],
      "name": "domains",
      "outputs": [
        {
          "internalType": "address",
          "name": "",
          "type": "address"
        }
      ],
      "stateMutability": "view",
      "type": "function"
    },
    {
      "inputs": [
        {
          "internalType": "string",
          "name": "name",
          "type": "string"
        }
      ],
      "name": "getAddress",
      "outputs": [
        {
          "internalType": "address",
          "name": "domain",
          "type": "address"
        }
      ],
      "stateMutability": "view",
      "type": "function"
    },
    {
      "inputs": [],
      "name": "getAllNames",
      "outputs": [
        {
          "internalType": "string[]",
          "name": "",
          "type": "string[]"
        }
      ],
      "stateMutability": "view",
      "type": "function"
    },
    {
      "inputs": [
        {
          "internalType": "uint256",
          "name": "tokenId",
          "type": "uint256"
        }
      ],
      "name": "getApproved",
      "outputs": [
        {
          "internalType": "address",
          "name": "",
          "type": "address"
        }
      ],
      "stateMutability": "view",
      "type": "function"
    },
    {
      "inputs": [
        {
          "internalType": "string",
          "name": "name",
          "type": "string"
        }
      ],
      "name": "getRecord",
      "outputs": [
        {
          "internalType": "string",
          "name": "",
          "type": "string"
        }
      ],
      "stateMutability": "view",
      "type": "function"
    },
    {
      "inputs": [
        {
          "internalType": "address",
          "name": "owner",
          "type": "address"
        },
        {
          "internalType": "address",
          "name": "operator",
          "type": "address"
        }
      ],
      "name": "isApprovedForAll",
      "outputs": [
        {
          "internalType": "bool",
          "name": "",
          "type": "bool"
        }
      ],
      "stateMutability": "view",
      "type": "function"
    },
    {
      "inputs": [],
      "name": "isOwner",
      "outputs": [
        {
          "internalType": "bool",
          "name": "",
          "type": "bool"
        }
      ],
      "stateMutability": "view",
      "type": "function"
    },
    {
      "inputs": [],
      "name": "name",
      "outputs": [
        {
          "internalType": "string",
          "name": "",
          "type": "string"
        }
      ],
      "stateMutability": "view",
      "type": "function"
    },
    {
      "inputs": [
        {
          "internalType": "uint256",
          "name": "",
          "type": "uint256"
        }
      ],
      "name": "names",
      "outputs": [
        {
          "internalType": "string",
          "name": "",
          "type": "string"
        }
      ],
      "stateMutability": "view",
      "type": "function"
    },
    {
      "inputs": [],
      "name": "owner",
      "outputs": [
        {
          "internalType": "address payable",
          "name": "",
          "type": "address"
        }
      ],
      "stateMutability": "view",
      "type": "function"
    },
    {
      "inputs": [
        {
          "internalType": "uint256",
          "name": "tokenId",
          "type": "uint256"
        }
      ],
      "name": "ownerOf",
      "outputs": [
        {
          "internalType": "address",
          "name": "",
          "type": "address"
        }
      ],
      "stateMutability": "view",
      "type": "function"
    },
    {
      "inputs": [
        {
          "internalType": "string",
          "name": "",
          "type": "string"
        }
      ],
      "name": "records",
      "outputs": [
        {
          "internalType": "string",
          "name": "",
          "type": "string"
        }
      ],
      "stateMutability": "view",
      "type": "function"
    },
    {
      "inputs": [
        {
          "internalType": "string",
          "name": "name",
          "type": "string"
        }
      ],
      "name": "register",
      "outputs": [],
      "stateMutability": "payable",
      "type": "function"
    },
    {
      "inputs": [
        {
          "internalType": "address",
          "name": "from",
          "type": "address"
        },
        {
          "internalType": "address",
          "name": "to",
          "type": "address"
        },
        {
          "internalType": "uint256",
          "name": "tokenId",
          "type": "uint256"
        }
      ],
      "name": "safeTransferFrom",
      "outputs": [],
      "stateMutability": "nonpayable",
      "type": "function"
    },
    {
      "inputs": [
        {
          "internalType": "address",
          "name": "from",
          "type": "address"
        },
        {
          "internalType": "address",
          "name": "to",
          "type": "address"
        },
        {
          "internalType": "uint256",
          "name": "tokenId",
          "type": "uint256"
        },
        {
          "internalType": "bytes",
          "name": "_data",
          "type": "bytes"
        }
      ],
      "name": "safeTransferFrom",
      "outputs": [],
      "stateMutability": "nonpayable",
      "type": "function"
    },
    {
      "inputs": [
        {
          "internalType": "address",
          "name": "operator",
          "type": "address"
        },
        {
          "internalType": "bool",
          "name": "approved",
          "type": "bool"
        }
      ],
      "name": "setApprovalForAll",
      "outputs": [],
      "stateMutability": "nonpayable",
      "type": "function"
    },
    {
      "inputs": [
        {
          "internalType": "string",
          "name": "name",
          "type": "string"
        },
        {
          "internalType": "string",
          "name": "record",
          "type": "string"
        }
      ],
      "name": "setRecord",
      "outputs": [],
      "stateMutability": "nonpayable",
      "type": "function"
    },
    {
      "inputs": [
        {
          "internalType": "bytes4",
          "name": "interfaceId",
          "type": "bytes4"
        }
      ],
      "name": "supportsInterface",
      "outputs": [
        {
          "internalType": "bool",
          "name": "",
          "type": "bool"
        }
      ],
      "stateMutability": "view",
      "type": "function"
    },
    {
      "inputs": [],
      "name": "symbol",
      "outputs": [
        {
          "internalType": "string",
          "name": "",
          "type": "string"
        }
      ],
      "stateMutability": "view",
      "type": "function"
    },
    {
      "inputs": [],
      "name": "tld",
      "outputs": [
        {
          "internalType": "string",
          "name": "",
          "type": "string"
        }
      ],
      "stateMutability": "view",
      "type": "function"
    },
    {
      "inputs": [
        {
          "internalType": "uint256",
          "name": "tokenId",
          "type": "uint256"
        }
      ],
      "name": "tokenURI",
      "outputs": [
        {
          "internalType": "string",
          "name": "",
          "type": "string"
        }
      ],
      "stateMutability": "view",
      "type": "function"
    },
    {
      "inputs": [
        {
          "internalType": "address",
          "name": "from",
          "type": "address"
        },
        {
          "internalType": "address",
          "name": "to",
          "type": "address"
        },
        {
          "internalType": "uint256",
          "name": "tokenId",
          "type": "uint256"
        }
      ],
      "name": "transferFrom",
      "outputs": [],
      "stateMutability": "nonpayable",
      "type": "function"
    },
    {
      "inputs": [
        {
          "internalType": "string",
          "name": "name",
          "type": "string"
        }
      ],
      "name": "valid",
      "outputs": [
        {
          "internalType": "bool",
          "name": "",
          "type": "bool"
        }
      ],
      "stateMutability": "pure",
      "type": "function"
    },
    {
      "inputs": [],
      "name": "withdraw",
      "outputs": [],
      "stateMutability": "nonpayable",
      "type": "function"
    }
  ],
  "bytecode": "0x6080604052604051806108a0016040528061086b81526020016200540d61086b9139600a908051906020019062000038929190620002c8565b506040518060400160405280600d81526020017f3c2f746578743e3c2f7376673e00000000000000000000000000000000000000815250600b908051906020019062000086929190620002c8565b5060405162005c7838038062005c788339818101604052810190620000ac919062000515565b6040518060400160405280601281526020017f4672657368204e616d65205365727669636500000000000000000000000000008152506040518060400160405280600581526020017f4652455348000000000000000000000000000000000000000000000000000000815250816000908051906020019062000130929190620002c8565b50806001908051906020019062000149929190620002c8565b50505033600860006101000a81548173ffffffffffffffffffffffffffffffffffffffff021916908373ffffffffffffffffffffffffffffffffffffffff1602179055508060099080519060200190620001a5929190620002c8565b50620001f26040518060400160405280601881526020017f2573206e616d652073657276696365206465706c6f796564000000000000000081525082620001f960201b62001b111760201c565b5062000663565b6200029b828260405160240162000212929190620005c3565b6040516020818303038152906040527f4b5c4277000000000000000000000000000000000000000000000000000000007bffffffffffffffffffffffffffffffffffffffffffffffffffffffff19166020820180517bffffffffffffffffffffffffffffffffffffffffffffffffffffffff83818316178352505050506200029f60201b60201c565b5050565b60008151905060006a636f6e736f6c652e6c6f679050602083016000808483855afa5050505050565b828054620002d6906200062d565b90600052602060002090601f016020900481019282620002fa576000855562000346565b82601f106200031557805160ff191683800117855562000346565b8280016001018555821562000346579182015b828111156200034557825182559160200191906001019062000328565b5b50905062000355919062000359565b5090565b5b80821115620003745760008160009055506001016200035a565b5090565b6000604051905090565b600080fd5b600080fd5b600080fd5b600080fd5b6000601f19601f8301169050919050565b7f4e487b7100000000000000000000000000000000000000000000000000000000600052604160045260246000fd5b620003e18262000396565b810181811067ffffffffffffffff82111715620004035762000402620003a7565b5b80604052505050565b60006200041862000378565b9050620004268282620003d6565b919050565b600067ffffffffffffffff821115620004495762000448620003a7565b5b620004548262000396565b9050602081019050919050565b60005b838110156200048157808201518184015260208101905062000464565b8381111562000491576000848401525b50505050565b6000620004ae620004a8846200042b565b6200040c565b905082815260208101848484011115620004cd57620004cc62000391565b5b620004da84828562000461565b509392505050565b600082601f830112620004fa57620004f96200038c565b5b81516200050c84826020860162000497565b91505092915050565b6000602082840312156200052e576200052d62000382565b5b600082015167ffffffffffffffff8111156200054f576200054e62000387565b5b6200055d84828501620004e2565b91505092915050565b600081519050919050565b600082825260208201905092915050565b60006200058f8262000566565b6200059b818562000571565b9350620005ad81856020860162000461565b620005b88162000396565b840191505092915050565b60006040820190508181036000830152620005df818562000582565b90508181036020830152620005f5818462000582565b90509392505050565b7f4e487b7100000000000000000000000000000000000000000000000000000000600052602260045260246000fd5b600060028204905060018216806200064657607f821691505b602082108114156200065d576200065c620005fe565b5b50919050565b614d9a80620006736000396000f3fe6080604052600436106101815760003560e01c806370a08231116100d1578063b88d4fde1161008a578063c87b56dd11610064578063c87b56dd146105cc578063e985e9c514610609578063f2c298be14610646578063fb825e5f1461066257610181565b8063b88d4fde1461053d578063bf40fac114610566578063c1880a98146105a357610181565b806370a08231146104195780638da5cb5b146104565780638f32d59b1461048157806395d89b41146104ac5780639791c097146104d7578063a22cb4651461051457610181565b8063264492351161013e57806342842e0e1161011857806342842e0e146103395780634622ab0314610362578063541e771d1461039f5780636352211e146103dc57610181565b806326449235146102ba5780632d551432146102f75780633ccfd60b1461032257610181565b806301ffc9a71461018657806306fdde03146101c3578063081812fc146101ee578063095ea7b31461022b57806311dd88451461025457806323b872dd14610291575b600080fd5b34801561019257600080fd5b506101ad60048036038101906101a891906130fe565b61068d565b6040516101ba9190613146565b60405180910390f35b3480156101cf57600080fd5b506101d861076f565b6040516101e591906131fa565b60405180910390f35b3480156101fa57600080fd5b5061021560048036038101906102109190613252565b610801565b60405161022291906132c0565b60405180910390f35b34801561023757600080fd5b50610252600480360381019061024d9190613307565b610886565b005b34801561026057600080fd5b5061027b600480360381019061027691906133ac565b61099e565b60405161028891906131fa565b60405180910390f35b34801561029d57600080fd5b506102b860048036038101906102b391906133f9565b610a51565b005b3480156102c657600080fd5b506102e160048036038101906102dc919061357c565b610ab1565b6040516102ee91906132c0565b60405180910390f35b34801561030357600080fd5b5061030c610afa565b60405161031991906131fa565b60405180910390f35b34801561032e57600080fd5b50610337610b88565b005b34801561034557600080fd5b50610360600480360381019061035b91906133f9565b610c4e565b005b34801561036e57600080fd5b5061038960048036038101906103849190613252565b610c6e565b60405161039691906131fa565b60405180910390f35b3480156103ab57600080fd5b506103c660048036038101906103c1919061357c565b610d0e565b6040516103d391906131fa565b60405180910390f35b3480156103e857600080fd5b5061040360048036038101906103fe9190613252565b610dc4565b60405161041091906132c0565b60405180910390f35b34801561042557600080fd5b50610440600480360381019061043b91906135c5565b610e76565b60405161044d9190613601565b60405180910390f35b34801561046257600080fd5b5061046b610f2e565b604051610478919061363d565b60405180910390f35b34801561048d57600080fd5b50610496610f54565b6040516104a39190613146565b60405180910390f35b3480156104b857600080fd5b506104c1610fac565b6040516104ce91906131fa565b60405180910390f35b3480156104e357600080fd5b506104fe60048036038101906104f991906133ac565b61103e565b60405161050b9190613146565b60405180910390f35b34801561052057600080fd5b5061053b60048036038101906105369190613684565b6110f2565b005b34801561054957600080fd5b50610564600480360381019061055f9190613765565b611108565b005b34801561057257600080fd5b5061058d600480360381019061058891906133ac565b61116a565b60405161059a91906132c0565b60405180910390f35b3480156105af57600080fd5b506105ca60048036038101906105c591906137e8565b6111b5565b005b3480156105d857600080fd5b506105f360048036038101906105ee9190613252565b611290565b60405161060091906131fa565b60405180910390f35b34801561061557600080fd5b50610630600480360381019061062b9190613869565b6113e2565b60405161063d9190613146565b60405180910390f35b610660600480360381019061065b91906133ac565b611476565b005b34801561066e57600080fd5b50610677611933565b60405161068491906139b5565b60405180910390f35b60007f80ac58cd000000000000000000000000000000000000000000000000000000007bffffffffffffffffffffffffffffffffffffffffffffffffffffffff1916827bffffffffffffffffffffffffffffffffffffffffffffffffffffffff1916148061075857507f5b5e139f000000000000000000000000000000000000000000000000000000007bffffffffffffffffffffffffffffffffffffffffffffffffffffffff1916827bffffffffffffffffffffffffffffffffffffffffffffffffffffffff1916145b80610768575061076782611bad565b5b9050919050565b60606000805461077e90613a06565b80601f01602080910402602001604051908101604052809291908181526020018280546107aa90613a06565b80156107f75780601f106107cc576101008083540402835291602001916107f7565b820191906000526020600020905b8154815290600101906020018083116107da57829003601f168201915b5050505050905090565b600061080c82611c17565b61084b576040517f08c379a000000000000000000000000000000000000000000000000000000000815260040161084290613aaa565b60405180910390fd5b6004600083815260200190815260200160002060009054906101000a900473ffffffffffffffffffffffffffffffffffffffff169050919050565b600061089182610dc4565b90508073ffffffffffffffffffffffffffffffffffffffff168373ffffffffffffffffffffffffffffffffffffffff161415610902576040517f08c379a00000000000000000000000000000000000000000000000000000000081526004016108f990613b3c565b60405180910390fd5b8073ffffffffffffffffffffffffffffffffffffffff16610921611c83565b73ffffffffffffffffffffffffffffffffffffffff161480610950575061094f8161094a611c83565b6113e2565b5b61098f576040517f08c379a000000000000000000000000000000000000000000000000000000000815260040161098690613bce565b60405180910390fd5b6109998383611c8b565b505050565b6060600d83836040516109b2929190613c1e565b908152602001604051809103902080546109cb90613a06565b80601f01602080910402602001604051908101604052809291908181526020018280546109f790613a06565b8015610a445780601f10610a1957610100808354040283529160200191610a44565b820191906000526020600020905b815481529060010190602001808311610a2757829003601f168201915b5050505050905092915050565b610a62610a5c611c83565b82611d44565b610aa1576040517f08c379a0000000000000000000000000000000000000000000000000000000008152600401610a9890613ca9565b60405180910390fd5b610aac838383611e22565b505050565b600c818051602081018201805184825260208301602085012081835280955050505050506000915054906101000a900473ffffffffffffffffffffffffffffffffffffffff1681565b60098054610b0790613a06565b80601f0160208091040260200160405190810160405280929190818152602001828054610b3390613a06565b8015610b805780601f10610b5557610100808354040283529160200191610b80565b820191906000526020600020905b815481529060010190602001808311610b6357829003601f168201915b505050505081565b610b90610f54565b610b9957600080fd5b600047905060003373ffffffffffffffffffffffffffffffffffffffff1682604051610bc490613cfa565b60006040518083038185875af1925050503d8060008114610c01576040519150601f19603f3d011682016040523d82523d6000602084013e610c06565b606091505b5050905080610c4a576040517f08c379a0000000000000000000000000000000000000000000000000000000008152600401610c4190613d5b565b60405180910390fd5b5050565b610c6983838360405180602001604052806000815250611108565b505050565b600e6020528060005260406000206000915090508054610c8d90613a06565b80601f0160208091040260200160405190810160405280929190818152602001828054610cb990613a06565b8015610d065780601f10610cdb57610100808354040283529160200191610d06565b820191906000526020600020905b815481529060010190602001808311610ce957829003601f168201915b505050505081565b600d818051602081018201805184825260208301602085012081835280955050505050506000915090508054610d4390613a06565b80601f0160208091040260200160405190810160405280929190818152602001828054610d6f90613a06565b8015610dbc5780601f10610d9157610100808354040283529160200191610dbc565b820191906000526020600020905b815481529060010190602001808311610d9f57829003601f168201915b505050505081565b6000806002600084815260200190815260200160002060009054906101000a900473ffffffffffffffffffffffffffffffffffffffff169050600073ffffffffffffffffffffffffffffffffffffffff168173ffffffffffffffffffffffffffffffffffffffff161415610e6d576040517f08c379a0000000000000000000000000000000000000000000000000000000008152600401610e6490613ded565b60405180910390fd5b80915050919050565b60008073ffffffffffffffffffffffffffffffffffffffff168273ffffffffffffffffffffffffffffffffffffffff161415610ee7576040517f08c379a0000000000000000000000000000000000000000000000000000000008152600401610ede90613e7f565b60405180910390fd5b600360008373ffffffffffffffffffffffffffffffffffffffff1673ffffffffffffffffffffffffffffffffffffffff168152602001908152602001600020549050919050565b600860009054906101000a900473ffffffffffffffffffffffffffffffffffffffff1681565b6000600860009054906101000a900473ffffffffffffffffffffffffffffffffffffffff1673ffffffffffffffffffffffffffffffffffffffff163373ffffffffffffffffffffffffffffffffffffffff1614905090565b606060018054610fbb90613a06565b80601f0160208091040260200160405190810160405280929190818152602001828054610fe790613a06565b80156110345780601f1061100957610100808354040283529160200191611034565b820191906000526020600020905b81548152906001019060200180831161101757829003601f168201915b5050505050905090565b6000600361108f84848080601f016020809104026020016040519081016040528093929190818152602001838380828437600081840152601f19601f82011690508083019250505050505050612089565b101580156110ea5750600a6110e784848080601f016020809104026020016040519081016040528093929190818152602001838380828437600081840152601f19601f82011690508083019250505050505050612089565b11155b905092915050565b6111046110fd611c83565b838361223e565b5050565b611119611113611c83565b83611d44565b611158576040517f08c379a000000000000000000000000000000000000000000000000000000000815260040161114f90613ca9565b60405180910390fd5b611164848484846123ab565b50505050565b6000600c838360405161117e929190613c1e565b908152602001604051809103902060009054906101000a900473ffffffffffffffffffffffffffffffffffffffff16905092915050565b600c84846040516111c7929190613c1e565b908152602001604051809103902060009054906101000a900473ffffffffffffffffffffffffffffffffffffffff1673ffffffffffffffffffffffffffffffffffffffff163373ffffffffffffffffffffffffffffffffffffffff161461125a576040517f82b4290000000000000000000000000000000000000000000000000000000000815260040160405180910390fd5b8181600d868660405161126e929190613c1e565b90815260200160405180910390209190611289929190612f69565b5050505050565b606061129b82611c17565b6112da576040517f08c379a00000000000000000000000000000000000000000000000000000000081526004016112d190613f11565b60405180910390fd5b60006006600084815260200190815260200160002080546112fa90613a06565b80601f016020809104026020016040519081016040528092919081815260200182805461132690613a06565b80156113735780601f1061134857610100808354040283529160200191611373565b820191906000526020600020905b81548152906001019060200180831161135657829003601f168201915b505050505090506000611384612407565b905060008151141561139a5781925050506113dd565b6000825111156113cf5780826040516020016113b7929190613f62565b604051602081830303815290604052925050506113dd565b6113d88461241e565b925050505b919050565b6000600560008473ffffffffffffffffffffffffffffffffffffffff1673ffffffffffffffffffffffffffffffffffffffff16815260200190815260200160002060008373ffffffffffffffffffffffffffffffffffffffff1673ffffffffffffffffffffffffffffffffffffffff16815260200190815260200160002060009054906101000a900460ff16905092915050565b600073ffffffffffffffffffffffffffffffffffffffff16600c83836040516114a0929190613c1e565b908152602001604051809103902060009054906101000a900473ffffffffffffffffffffffffffffffffffffffff1673ffffffffffffffffffffffffffffffffffffffff161461151c576040517f3a81d6fc00000000000000000000000000000000000000000000000000000000815260040160405180910390fd5b611526828261103e565b6115695781816040517f7f19f48d000000000000000000000000000000000000000000000000000000008152600401611560929190613fb3565b60405180910390fd5b600061157583836124c5565b9050803410156115ba576040517f08c379a00000000000000000000000000000000000000000000000000000000081526004016115b190614023565b60405180910390fd5b6000838360096040516020016115d293929190614123565b60405160208183030381529060405290506000600a82600b6040516020016115fc93929190614154565b604051602081830303815290604052905060006116196007612565565b9050600061166a87878080601f016020809104026020016040519081016040528093929190818152602001838380828437600081840152601f19601f82011690508083019250505050505050612089565b9050600061167782612573565b905061176b604051806060016040528060318152602001614cbb6031913989898080601f016020809104026020016040519081016040528093929190818152602001838380828437600081840152601f19601f82011690508083019250505050505050600980546116e790613a06565b80601f016020809104026020016040519081016040528092919081815260200182805461171390613a06565b80156117605780601f1061173557610100808354040283529160200191611760565b820191906000526020600020905b81548152906001019060200180831161174357829003601f168201915b5050505050866126d4565b60006117a18661177a87612776565b8460405160200161178d93929190614301565b604051602081830303815290604052612776565b90506000816040516020016117b691906143aa565b60405160208183030381529060405290506117e8604051806060016040528060398152602001614c82603991396128da565b6118276040518060400160405280600e81526020017f46696e616c20746f6b656e55524900000000000000000000000000000000000081525082611b11565b611848604051806060016040528060398152602001614cec603991396128da565b6118523386612973565b61185c8582612991565b33600c8b8b60405161186f929190613c1e565b908152602001604051809103902060006101000a81548173ffffffffffffffffffffffffffffffffffffffff021916908373ffffffffffffffffffffffffffffffffffffffff1602179055506118fa6040518060400160405280601b81526020017f2573206861732072656769737465726564206120646f6d61696e21000000000081525033612a05565b8989600e6000888152602001908152602001600020919061191c929190612f69565b506119276007612aa1565b50505050505050505050565b60606119736040518060400160405280601f81526020017f47657474696e6720616c6c206e616d65732066726f6d20636f6e7472616374008152506128da565b600061197f6007612565565b67ffffffffffffffff81111561199857611997613451565b5b6040519080825280602002602001820160405280156119cb57816020015b60608152602001906001900390816119b65790505b50905060005b6119db6007612565565b811015611b0957600e60008281526020019081526020016000208054611a0090613a06565b80601f0160208091040260200160405190810160405280929190818152602001828054611a2c90613a06565b8015611a795780601f10611a4e57610100808354040283529160200191611a79565b820191906000526020600020905b815481529060010190602001808311611a5c57829003601f168201915b5050505050828281518110611a9157611a906143cc565b5b6020026020010181905250611af66040518060400160405280601781526020017f4e616d6520666f7220746f6b656e20256420697320257300000000000000000081525082848481518110611ae957611ae86143cc565b5b6020026020010151612ab7565b8080611b019061442a565b9150506119d1565b508091505090565b611ba98282604051602401611b27929190614473565b6040516020818303038152906040527f4b5c4277000000000000000000000000000000000000000000000000000000007bffffffffffffffffffffffffffffffffffffffffffffffffffffffff19166020820180517bffffffffffffffffffffffffffffffffffffffffffffffffffffffff8381831617835250505050612b56565b5050565b60007f01ffc9a7000000000000000000000000000000000000000000000000000000007bffffffffffffffffffffffffffffffffffffffffffffffffffffffff1916827bffffffffffffffffffffffffffffffffffffffffffffffffffffffff1916149050919050565b60008073ffffffffffffffffffffffffffffffffffffffff166002600084815260200190815260200160002060009054906101000a900473ffffffffffffffffffffffffffffffffffffffff1673ffffffffffffffffffffffffffffffffffffffff1614159050919050565b600033905090565b816004600083815260200190815260200160002060006101000a81548173ffffffffffffffffffffffffffffffffffffffff021916908373ffffffffffffffffffffffffffffffffffffffff160217905550808273ffffffffffffffffffffffffffffffffffffffff16611cfe83610dc4565b73ffffffffffffffffffffffffffffffffffffffff167f8c5be1e5ebec7d5bd14f71427d1e84f3dd0314c0f7b2291e5b200ac8c7c3b92560405160405180910390a45050565b6000611d4f82611c17565b611d8e576040517f08c379a0000000000000000000000000000000000000000000000000000000008152600401611d859061451c565b60405180910390fd5b6000611d9983610dc4565b90508073ffffffffffffffffffffffffffffffffffffffff168473ffffffffffffffffffffffffffffffffffffffff161480611e0857508373ffffffffffffffffffffffffffffffffffffffff16611df084610801565b73ffffffffffffffffffffffffffffffffffffffff16145b80611e195750611e1881856113e2565b5b91505092915050565b8273ffffffffffffffffffffffffffffffffffffffff16611e4282610dc4565b73ffffffffffffffffffffffffffffffffffffffff1614611e98576040517f08c379a0000000000000000000000000000000000000000000000000000000008152600401611e8f906145ae565b60405180910390fd5b600073ffffffffffffffffffffffffffffffffffffffff168273ffffffffffffffffffffffffffffffffffffffff161415611f08576040517f08c379a0000000000000000000000000000000000000000000000000000000008152600401611eff90614640565b60405180910390fd5b611f13838383612b7f565b611f1e600082611c8b565b6001600360008573ffffffffffffffffffffffffffffffffffffffff1673ffffffffffffffffffffffffffffffffffffffff1681526020019081526020016000206000828254611f6e9190614660565b925050819055506001600360008473ffffffffffffffffffffffffffffffffffffffff1673ffffffffffffffffffffffffffffffffffffffff1681526020019081526020016000206000828254611fc59190614694565b92505081905550816002600083815260200190815260200160002060006101000a81548173ffffffffffffffffffffffffffffffffffffffff021916908373ffffffffffffffffffffffffffffffffffffffff160217905550808273ffffffffffffffffffffffffffffffffffffffff168473ffffffffffffffffffffffffffffffffffffffff167fddf252ad1be2c89b69c2b068fc378daa952ba7f163c4a11628f55a4df523b3ef60405160405180910390a4612084838383612b84565b505050565b60008060008084519050600092505b808210156122335760008583815181106120b5576120b46143cc565b5b602001015160f81c60f81b9050608060f81b817effffffffffffffffffffffffffffffffffffffffffffffffffffffffffffff19161015612104576001836120fd9190614694565b925061221f565b60e060f81b817effffffffffffffffffffffffffffffffffffffffffffffffffffffffffffff191610156121465760028361213f9190614694565b925061221e565b60f060f81b817effffffffffffffffffffffffffffffffffffffffffffffffffffffffffffff19161015612188576003836121819190614694565b925061221d565b60f8801b817effffffffffffffffffffffffffffffffffffffffffffffffffffffffffffff191610156121c9576004836121c29190614694565b925061221c565b60fc60f81b817effffffffffffffffffffffffffffffffffffffffffffffffffffffffffffff1916101561220b576005836122049190614694565b925061221b565b6006836122189190614694565b92505b5b5b5b5b50828061222b9061442a565b935050612098565b829350505050919050565b8173ffffffffffffffffffffffffffffffffffffffff168373ffffffffffffffffffffffffffffffffffffffff1614156122ad576040517f08c379a00000000000000000000000000000000000000000000000000000000081526004016122a490614736565b60405180910390fd5b80600560008573ffffffffffffffffffffffffffffffffffffffff1673ffffffffffffffffffffffffffffffffffffffff16815260200190815260200160002060008473ffffffffffffffffffffffffffffffffffffffff1673ffffffffffffffffffffffffffffffffffffffff16815260200190815260200160002060006101000a81548160ff0219169083151502179055508173ffffffffffffffffffffffffffffffffffffffff168373ffffffffffffffffffffffffffffffffffffffff167f17307eab39ab6107e8899845ad3d59bd9653f200f220920489ca2b5937696c318360405161239e9190613146565b60405180910390a3505050565b6123b6848484611e22565b6123c284848484612b89565b612401576040517f08c379a00000000000000000000000000000000000000000000000000000000081526004016123f8906147c8565b60405180910390fd5b50505050565b606060405180602001604052806000815250905090565b606061242982611c17565b612468576040517f08c379a000000000000000000000000000000000000000000000000000000000815260040161245f9061485a565b60405180910390fd5b6000612472612407565b9050600081511161249257604051806020016040528060008152506124bd565b8061249c84612573565b6040516020016124ad929190613f62565b6040516020818303038152906040525b915050919050565b60008061251584848080601f016020809104026020016040519081016040528093929190818152602001838380828437600081840152601f19601f82011690508083019250505050505050612089565b90506000811161252457600080fd5b600381141561253e576706f05b59d3b2000091505061255f565b6004811415612552576101fe91505061255f565b67016345785d8a00009150505b92915050565b600081600001549050919050565b606060008214156125bb576040518060400160405280600181526020017f300000000000000000000000000000000000000000000000000000000000000081525090506126cf565b600082905060005b600082146125ed5780806125d69061442a565b915050600a826125e691906148a9565b91506125c3565b60008167ffffffffffffffff81111561260957612608613451565b5b6040519080825280601f01601f19166020018201604052801561263b5781602001600182028036833780820191505090505b5090505b600085146126c8576001826126549190614660565b9150600a8561266391906148da565b603061266f9190614694565b60f81b818381518110612685576126846143cc565b5b60200101907effffffffffffffffffffffffffffffffffffffffffffffffffffffffffffff1916908160001a905350600a856126c191906148a9565b945061263f565b8093505050505b919050565b612770848484846040516024016126ee949392919061490b565b6040516020818303038152906040527f9fd009f5000000000000000000000000000000000000000000000000000000007bffffffffffffffffffffffffffffffffffffffffffffffffffffffff19166020820180517bffffffffffffffffffffffffffffffffffffffffffffffffffffffff8381831617835250505050612b56565b50505050565b6060600082511415612799576040518060200160405280600081525090506128d5565b6000604051806060016040528060408152602001614d2560409139905060006003600285516127c89190614694565b6127d291906148a9565b60046127de9190614965565b67ffffffffffffffff8111156127f7576127f6613451565b5b6040519080825280601f01601f1916602001820160405280156128295781602001600182028036833780820191505090505b509050600182016020820185865187015b80821015612895576003820191508151603f8160121c168501518453600184019350603f81600c1c168501518453600184019350603f8160061c168501518453600184019350603f811685015184536001840193505061283a565b50506003865106600181146128b157600281146128c4576128cc565b603d6001830353603d60028303536128cc565b603d60018303535b50505080925050505b919050565b612970816040516024016128ee91906131fa565b6040516020818303038152906040527f41304fac000000000000000000000000000000000000000000000000000000007bffffffffffffffffffffffffffffffffffffffffffffffffffffffff19166020820180517bffffffffffffffffffffffffffffffffffffffffffffffffffffffff8381831617835250505050612b56565b50565b61298d828260405180602001604052806000815250612d11565b5050565b61299a82611c17565b6129d9576040517f08c379a00000000000000000000000000000000000000000000000000000000081526004016129d090614a31565b60405180910390fd5b80600660008481526020019081526020016000209080519060200190612a00929190612fef565b505050565b612a9d8282604051602401612a1b929190614a51565b6040516020818303038152906040527f319af333000000000000000000000000000000000000000000000000000000007bffffffffffffffffffffffffffffffffffffffffffffffffffffffff19166020820180517bffffffffffffffffffffffffffffffffffffffffffffffffffffffff8381831617835250505050612b56565b5050565b6001816000016000828254019250508190555050565b612b51838383604051602401612acf93929190614a81565b6040516020818303038152906040527fa3f5c739000000000000000000000000000000000000000000000000000000007bffffffffffffffffffffffffffffffffffffffffffffffffffffffff19166020820180517bffffffffffffffffffffffffffffffffffffffffffffffffffffffff8381831617835250505050612b56565b505050565b60008151905060006a636f6e736f6c652e6c6f679050602083016000808483855afa5050505050565b505050565b505050565b6000612baa8473ffffffffffffffffffffffffffffffffffffffff16612d6c565b15612d04578373ffffffffffffffffffffffffffffffffffffffff1663150b7a02612bd3611c83565b8786866040518563ffffffff1660e01b8152600401612bf59493929190614b1b565b6020604051808303816000875af1925050508015612c3157506040513d601f19601f82011682018060405250810190612c2e9190614b7c565b60015b612cb4573d8060008114612c61576040519150601f19603f3d011682016040523d82523d6000602084013e612c66565b606091505b50600081511415612cac576040517f08c379a0000000000000000000000000000000000000000000000000000000008152600401612ca3906147c8565b60405180910390fd5b805181602001fd5b63150b7a0260e01b7bffffffffffffffffffffffffffffffffffffffffffffffffffffffff1916817bffffffffffffffffffffffffffffffffffffffffffffffffffffffff191614915050612d09565b600190505b949350505050565b612d1b8383612d8f565b612d286000848484612b89565b612d67576040517f08c379a0000000000000000000000000000000000000000000000000000000008152600401612d5e906147c8565b60405180910390fd5b505050565b6000808273ffffffffffffffffffffffffffffffffffffffff163b119050919050565b600073ffffffffffffffffffffffffffffffffffffffff168273ffffffffffffffffffffffffffffffffffffffff161415612dff576040517f08c379a0000000000000000000000000000000000000000000000000000000008152600401612df690614bf5565b60405180910390fd5b612e0881611c17565b15612e48576040517f08c379a0000000000000000000000000000000000000000000000000000000008152600401612e3f90614c61565b60405180910390fd5b612e5460008383612b7f565b6001600360008473ffffffffffffffffffffffffffffffffffffffff1673ffffffffffffffffffffffffffffffffffffffff1681526020019081526020016000206000828254612ea49190614694565b92505081905550816002600083815260200190815260200160002060006101000a81548173ffffffffffffffffffffffffffffffffffffffff021916908373ffffffffffffffffffffffffffffffffffffffff160217905550808273ffffffffffffffffffffffffffffffffffffffff16600073ffffffffffffffffffffffffffffffffffffffff167fddf252ad1be2c89b69c2b068fc378daa952ba7f163c4a11628f55a4df523b3ef60405160405180910390a4612f6560008383612b84565b5050565b828054612f7590613a06565b90600052602060002090601f016020900481019282612f975760008555612fde565b82601f10612fb057803560ff1916838001178555612fde565b82800160010185558215612fde579182015b82811115612fdd578235825591602001919060010190612fc2565b5b509050612feb9190613075565b5090565b828054612ffb90613a06565b90600052602060002090601f01602090048101928261301d5760008555613064565b82601f1061303657805160ff1916838001178555613064565b82800160010185558215613064579182015b82811115613063578251825591602001919060010190613048565b5b5090506130719190613075565b5090565b5b8082111561308e576000816000905550600101613076565b5090565b6000604051905090565b600080fd5b600080fd5b60007fffffffff0000000000000000000000000000000000000000000000000000000082169050919050565b6130db816130a6565b81146130e657600080fd5b50565b6000813590506130f8816130d2565b92915050565b6000602082840312156131145761311361309c565b5b6000613122848285016130e9565b91505092915050565b60008115159050919050565b6131408161312b565b82525050565b600060208201905061315b6000830184613137565b92915050565b600081519050919050565b600082825260208201905092915050565b60005b8381101561319b578082015181840152602081019050613180565b838111156131aa576000848401525b50505050565b6000601f19601f8301169050919050565b60006131cc82613161565b6131d6818561316c565b93506131e681856020860161317d565b6131ef816131b0565b840191505092915050565b6000602082019050818103600083015261321481846131c1565b905092915050565b6000819050919050565b61322f8161321c565b811461323a57600080fd5b50565b60008135905061324c81613226565b92915050565b6000602082840312156132685761326761309c565b5b60006132768482850161323d565b91505092915050565b600073ffffffffffffffffffffffffffffffffffffffff82169050919050565b60006132aa8261327f565b9050919050565b6132ba8161329f565b82525050565b60006020820190506132d560008301846132b1565b92915050565b6132e48161329f565b81146132ef57600080fd5b50565b600081359050613301816132db565b92915050565b6000806040838503121561331e5761331d61309c565b5b600061332c858286016132f2565b925050602061333d8582860161323d565b9150509250929050565b600080fd5b600080fd5b600080fd5b60008083601f84011261336c5761336b613347565b5b8235905067ffffffffffffffff8111156133895761338861334c565b5b6020830191508360018202830111156133a5576133a4613351565b5b9250929050565b600080602083850312156133c3576133c261309c565b5b600083013567ffffffffffffffff8111156133e1576133e06130a1565b5b6133ed85828601613356565b92509250509250929050565b6000806000606084860312156134125761341161309c565b5b6000613420868287016132f2565b9350506020613431868287016132f2565b92505060406134428682870161323d565b9150509250925092565b600080fd5b7f4e487b7100000000000000000000000000000000000000000000000000000000600052604160045260246000fd5b613489826131b0565b810181811067ffffffffffffffff821117156134a8576134a7613451565b5b80604052505050565b60006134bb613092565b90506134c78282613480565b919050565b600067ffffffffffffffff8211156134e7576134e6613451565b5b6134f0826131b0565b9050602081019050919050565b82818337600083830152505050565b600061351f61351a846134cc565b6134b1565b90508281526020810184848401111561353b5761353a61344c565b5b6135468482856134fd565b509392505050565b600082601f83011261356357613562613347565b5b813561357384826020860161350c565b91505092915050565b6000602082840312156135925761359161309c565b5b600082013567ffffffffffffffff8111156135b0576135af6130a1565b5b6135bc8482850161354e565b91505092915050565b6000602082840312156135db576135da61309c565b5b60006135e9848285016132f2565b91505092915050565b6135fb8161321c565b82525050565b600060208201905061361660008301846135f2565b92915050565b60006136278261327f565b9050919050565b6136378161361c565b82525050565b6000602082019050613652600083018461362e565b92915050565b6136618161312b565b811461366c57600080fd5b50565b60008135905061367e81613658565b92915050565b6000806040838503121561369b5761369a61309c565b5b60006136a9858286016132f2565b92505060206136ba8582860161366f565b9150509250929050565b600067ffffffffffffffff8211156136df576136de613451565b5b6136e8826131b0565b9050602081019050919050565b6000613708613703846136c4565b6134b1565b9050828152602081018484840111156137245761372361344c565b5b61372f8482856134fd565b509392505050565b600082601f83011261374c5761374b613347565b5b813561375c8482602086016136f5565b91505092915050565b6000806000806080858703121561377f5761377e61309c565b5b600061378d878288016132f2565b945050602061379e878288016132f2565b93505060406137af8782880161323d565b925050606085013567ffffffffffffffff8111156137d0576137cf6130a1565b5b6137dc87828801613737565b91505092959194509250565b600080600080604085870312156138025761380161309c565b5b600085013567ffffffffffffffff8111156138205761381f6130a1565b5b61382c87828801613356565b9450945050602085013567ffffffffffffffff81111561384f5761384e6130a1565b5b61385b87828801613356565b925092505092959194509250565b600080604083850312156138805761387f61309c565b5b600061388e858286016132f2565b925050602061389f858286016132f2565b9150509250929050565b600081519050919050565b600082825260208201905092915050565b6000819050602082019050919050565b600082825260208201905092915050565b60006138f182613161565b6138fb81856138d5565b935061390b81856020860161317d565b613914816131b0565b840191505092915050565b600061392b83836138e6565b905092915050565b6000602082019050919050565b600061394b826138a9565b61395581856138b4565b935083602082028501613967856138c5565b8060005b858110156139a35784840389528151613984858261391f565b945061398f83613933565b925060208a0199505060018101905061396b565b50829750879550505050505092915050565b600060208201905081810360008301526139cf8184613940565b905092915050565b7f4e487b7100000000000000000000000000000000000000000000000000000000600052602260045260246000fd5b60006002820490506001821680613a1e57607f821691505b60208210811415613a3257613a316139d7565b5b50919050565b7f4552433732313a20617070726f76656420717565727920666f72206e6f6e657860008201527f697374656e7420746f6b656e0000000000000000000000000000000000000000602082015250565b6000613a94602c8361316c565b9150613a9f82613a38565b604082019050919050565b60006020820190508181036000830152613ac381613a87565b9050919050565b7f4552433732313a20617070726f76616c20746f2063757272656e74206f776e6560008201527f7200000000000000000000000000000000000000000000000000000000000000602082015250565b6000613b2660218361316c565b9150613b3182613aca565b604082019050919050565b60006020820190508181036000830152613b5581613b19565b9050919050565b7f4552433732313a20617070726f76652063616c6c6572206973206e6f74206f7760008201527f6e6572206e6f7220617070726f76656420666f7220616c6c0000000000000000602082015250565b6000613bb860388361316c565b9150613bc382613b5c565b604082019050919050565b60006020820190508181036000830152613be781613bab565b9050919050565b600081905092915050565b6000613c058385613bee565b9350613c128385846134fd565b82840190509392505050565b6000613c2b828486613bf9565b91508190509392505050565b7f4552433732313a207472616e736665722063616c6c6572206973206e6f74206f60008201527f776e6572206e6f7220617070726f766564000000000000000000000000000000602082015250565b6000613c9360318361316c565b9150613c9e82613c37565b604082019050919050565b60006020820190508181036000830152613cc281613c86565b9050919050565b600081905092915050565b50565b6000613ce4600083613cc9565b9150613cef82613cd4565b600082019050919050565b6000613d0582613cd7565b9150819050919050565b7f4661696c656420746f207769746864726177204d617469630000000000000000600082015250565b6000613d4560188361316c565b9150613d5082613d0f565b602082019050919050565b60006020820190508181036000830152613d7481613d38565b9050919050565b7f4552433732313a206f776e657220717565727920666f72206e6f6e657869737460008201527f656e7420746f6b656e0000000000000000000000000000000000000000000000602082015250565b6000613dd760298361316c565b9150613de282613d7b565b604082019050919050565b60006020820190508181036000830152613e0681613dca565b9050919050565b7f4552433732313a2062616c616e636520717565727920666f7220746865207a6560008201527f726f206164647265737300000000000000000000000000000000000000000000602082015250565b6000613e69602a8361316c565b9150613e7482613e0d565b604082019050919050565b60006020820190508181036000830152613e9881613e5c565b9050919050565b7f45524337323155524953746f726167653a2055524920717565727920666f722060008201527f6e6f6e6578697374656e7420746f6b656e000000000000000000000000000000602082015250565b6000613efb60318361316c565b9150613f0682613e9f565b604082019050919050565b60006020820190508181036000830152613f2a81613eee565b9050919050565b6000613f3c82613161565b613f468185613bee565b9350613f5681856020860161317d565b80840191505092915050565b6000613f6e8285613f31565b9150613f7a8284613f31565b91508190509392505050565b6000613f92838561316c565b9350613f9f8385846134fd565b613fa8836131b0565b840190509392505050565b60006020820190508181036000830152613fce818486613f86565b90509392505050565b7f4e6f7420656e6f756768204d6174696320706169640000000000000000000000600082015250565b600061400d60158361316c565b915061401882613fd7565b602082019050919050565b6000602082019050818103600083015261403c81614000565b9050919050565b7f2e00000000000000000000000000000000000000000000000000000000000000600082015250565b6000614079600183613bee565b915061408482614043565b600182019050919050565b60008190508160005260206000209050919050565b600081546140b181613a06565b6140bb8186613bee565b945060018216600081146140d657600181146140e75761411a565b60ff1983168652818601935061411a565b6140f08561408f565b60005b83811015614112578154818901526001820191506020810190506140f3565b838801955050505b50505092915050565b6000614130828587613bf9565b915061413b8261406c565b915061414782846140a4565b9150819050949350505050565b600061416082866140a4565b915061416c8285613f31565b915061417882846140a4565b9150819050949350505050565b7f7b226e616d65223a202200000000000000000000000000000000000000000000600082015250565b60006141bb600a83613bee565b91506141c682614185565b600a82019050919050565b7f222c20226465736372697074696f6e223a20224120646f6d61696e206f6e207460008201527f6865204e696e6a61206e616d652073657276696365222c2022696d616765223a60208201527f2022646174613a696d6167652f7376672b786d6c3b6261736536342c00000000604082015250565b6000614253605c83613bee565b915061425e826141d1565b605c82019050919050565b7f222c226c656e677468223a220000000000000000000000000000000000000000600082015250565b600061429f600c83613bee565b91506142aa82614269565b600c82019050919050565b7f227d000000000000000000000000000000000000000000000000000000000000600082015250565b60006142eb600283613bee565b91506142f6826142b5565b600282019050919050565b600061430c826141ae565b91506143188286613f31565b915061432382614246565b915061432f8285613f31565b915061433a82614292565b91506143468284613f31565b9150614351826142de565b9150819050949350505050565b7f646174613a6170706c69636174696f6e2f6a736f6e3b6261736536342c000000600082015250565b6000614394601d83613bee565b915061439f8261435e565b601d82019050919050565b60006143b582614387565b91506143c18284613f31565b915081905092915050565b7f4e487b7100000000000000000000000000000000000000000000000000000000600052603260045260246000fd5b7f4e487b7100000000000000000000000000000000000000000000000000000000600052601160045260246000fd5b60006144358261321c565b91507fffffffffffffffffffffffffffffffffffffffffffffffffffffffffffffffff821415614468576144676143fb565b5b600182019050919050565b6000604082019050818103600083015261448d81856131c1565b905081810360208301526144a181846131c1565b90509392505050565b7f4552433732313a206f70657261746f7220717565727920666f72206e6f6e657860008201527f697374656e7420746f6b656e0000000000000000000000000000000000000000602082015250565b6000614506602c8361316c565b9150614511826144aa565b604082019050919050565b60006020820190508181036000830152614535816144f9565b9050919050565b7f4552433732313a207472616e736665722066726f6d20696e636f72726563742060008201527f6f776e6572000000000000000000000000000000000000000000000000000000602082015250565b600061459860258361316c565b91506145a38261453c565b604082019050919050565b600060208201905081810360008301526145c78161458b565b9050919050565b7f4552433732313a207472616e7366657220746f20746865207a65726f2061646460008201527f7265737300000000000000000000000000000000000000000000000000000000602082015250565b600061462a60248361316c565b9150614635826145ce565b604082019050919050565b600060208201905081810360008301526146598161461d565b9050919050565b600061466b8261321c565b91506146768361321c565b925082821015614689576146886143fb565b5b828203905092915050565b600061469f8261321c565b91506146aa8361321c565b9250827fffffffffffffffffffffffffffffffffffffffffffffffffffffffffffffffff038211156146df576146de6143fb565b5b828201905092915050565b7f4552433732313a20617070726f766520746f2063616c6c657200000000000000600082015250565b600061472060198361316c565b915061472b826146ea565b602082019050919050565b6000602082019050818103600083015261474f81614713565b9050919050565b7f4552433732313a207472616e7366657220746f206e6f6e20455243373231526560008201527f63656976657220696d706c656d656e7465720000000000000000000000000000602082015250565b60006147b260328361316c565b91506147bd82614756565b604082019050919050565b600060208201905081810360008301526147e1816147a5565b9050919050565b7f4552433732314d657461646174613a2055524920717565727920666f72206e6f60008201527f6e6578697374656e7420746f6b656e0000000000000000000000000000000000602082015250565b6000614844602f8361316c565b915061484f826147e8565b604082019050919050565b6000602082019050818103600083015261487381614837565b9050919050565b7f4e487b7100000000000000000000000000000000000000000000000000000000600052601260045260246000fd5b60006148b48261321c565b91506148bf8361321c565b9250826148cf576148ce61487a565b5b828204905092915050565b60006148e58261321c565b91506148f08361321c565b925082614900576148ff61487a565b5b828206905092915050565b6000608082019050818103600083015261492581876131c1565b9050818103602083015261493981866131c1565b9050818103604083015261494d81856131c1565b905061495c60608301846135f2565b95945050505050565b60006149708261321c565b915061497b8361321c565b9250817fffffffffffffffffffffffffffffffffffffffffffffffffffffffffffffffff04831182151516156149b4576149b36143fb565b5b828202905092915050565b7f45524337323155524953746f726167653a2055524920736574206f66206e6f6e60008201527f6578697374656e7420746f6b656e000000000000000000000000000000000000602082015250565b6000614a1b602e8361316c565b9150614a26826149bf565b604082019050919050565b60006020820190508181036000830152614a4a81614a0e565b9050919050565b60006040820190508181036000830152614a6b81856131c1565b9050614a7a60208301846132b1565b9392505050565b60006060820190508181036000830152614a9b81866131c1565b9050614aaa60208301856135f2565b8181036040830152614abc81846131c1565b9050949350505050565b600081519050919050565b600082825260208201905092915050565b6000614aed82614ac6565b614af78185614ad1565b9350614b0781856020860161317d565b614b10816131b0565b840191505092915050565b6000608082019050614b3060008301876132b1565b614b3d60208301866132b1565b614b4a60408301856135f2565b8181036060830152614b5c8184614ae2565b905095945050505050565b600081519050614b76816130d2565b92915050565b600060208284031215614b9257614b9161309c565b5b6000614ba084828501614b67565b91505092915050565b7f4552433732313a206d696e7420746f20746865207a65726f2061646472657373600082015250565b6000614bdf60208361316c565b9150614bea82614ba9565b602082019050919050565b60006020820190508181036000830152614c0e81614bd2565b9050919050565b7f4552433732313a20746f6b656e20616c7265616479206d696e74656400000000600082015250565b6000614c4b601c8361316c565b9150614c5682614c15565b602082019050919050565b60006020820190508181036000830152614c7a81614c3e565b905091905056fe0a2d2d2d2d2d2d2d2d2d2d2d2d2d2d2d2d2d2d2d2d2d2d2d2d2d2d2d2d2d2d2d2d2d2d2d2d2d2d2d2d2d2d2d2d2d2d2d2d2d2d2d2d2d2d2d2d5265676973746572696e672025732e2573206f6e2074686520636f6e7472616374207769746820746f6b656e49442025642d2d2d2d2d2d2d2d2d2d2d2d2d2d2d2d2d2d2d2d2d2d2d2d2d2d2d2d2d2d2d2d2d2d2d2d2d2d2d2d2d2d2d2d2d2d2d2d2d2d2d2d2d2d2d2d0a4142434445464748494a4b4c4d4e4f505152535455565758595a6162636465666768696a6b6c6d6e6f707172737475767778797a303132333435363738392b2fa2646970667358221220c0c0accdc9154aa7cefac369fdf1b60c96cf513b149e3adba15e151c29efd05e64736f6c634300080a00333c73766720786d6c6e733d22687474703a2f2f7777772e77332e6f72672f323030302f737667222077696474683d2232373022206865696768743d22323730222066696c6c3d226e6f6e65223e3c706174682066696c6c3d2275726c282342292220643d224d302030683237307632373048307a222f3e3c646566733e3c66696c7465722069643d22412220636f6c6f722d696e746572706f6c6174696f6e2d66696c746572733d2273524742222066696c746572556e6974733d227573657253706163654f6e55736522206865696768743d22323730222077696474683d22323730223e3c666544726f70536861646f772064783d2230222064793d22312220737464446576696174696f6e3d22322220666c6f6f642d6f7061636974793d222e323235222077696474683d223230302522206865696768743d2232303025222f3e3c2f66696c7465723e3c2f646566733e3c7061746820643d224d37322e3836332034322e393439632d2e3636382d2e3338372d312e3432362d2e35392d322e3139372d2e3539732d312e3532392e3230342d322e3139372e35396c2d31302e30383120362e3033322d362e383520332e3933342d31302e30383120362e303332632d2e3636382e3338372d312e3432362e35392d322e3139372e3539732d312e3532392d2e3230342d322e3139372d2e35396c2d382e3031332d342e37323161342e353220342e35322030203020312d312e3538392d312e363136632d2e3338342d2e3636352d2e3539342d312e3431382d2e3630382d322e313837762d392e3331632d2e3031332d2e3737352e3138352d312e3533382e3537322d322e32303861342e323520342e323520302030203120312e3632352d312e3539356c372e3838342d342e3539632e3636382d2e33383720312e3432362d2e353920322e3139372d2e353973312e3532392e32303420322e3139372e35396c372e38383420342e353961342e353220342e353220302030203120312e35383920312e363136632e3338342e3636352e35393420312e3431382e36303820322e31383776362e3033326c362e38352d342e303635762d362e303332632e3031332d2e3737352d2e3138352d312e3533382d2e3537322d322e32303861342e323520342e32352030203020302d312e3632352d312e3539354c34312e3435362032342e3539632d2e3636382d2e3338372d312e3432362d2e35392d322e3139372d2e3539732d312e3532392e3230342d322e3139372e35396c2d31342e38363420382e36353561342e323520342e32352030203020302d312e36323520312e353935632d2e3338372e36372d2e35383520312e3433342d2e35373220322e3230387631372e343431632d2e3031332e3737352e31383520312e3533382e35373220322e32303861342e323520342e323520302030203020312e36323520312e3539356c31342e38363420382e363535632e3636382e33383720312e3432362e353920322e3139372e353973312e3532392d2e32303420322e3139372d2e35396c31302e3038312d352e39303120362e38352d342e3036352031302e3038312d352e393031632e3636382d2e33383720312e3432362d2e353920322e3139372d2e353973312e3532392e32303420322e3139372e35396c372e38383420342e353961342e353220342e353220302030203120312e35383920312e363136632e3338342e3636352e35393420312e3431382e36303820322e31383776392e333131632e3031332e3737352d2e31383520312e3533382d2e35373220322e32303861342e323520342e32352030203020312d312e36323520312e3539356c2d372e38383420342e373231632d2e3636382e3338372d312e3432362e35392d322e3139372e3539732d312e3532392d2e3230342d322e3139372d2e35396c2d372e3838342d342e353961342e353220342e35322030203020312d312e3538392d312e363136632d2e3338352d2e3636352d2e3539342d312e3431382d2e3630382d322e313837762d362e3033326c2d362e383520342e30363576362e303332632d2e3031332e3737352e31383520312e3533382e35373220322e32303861342e323520342e323520302030203020312e36323520312e3539356c31342e38363420382e363535632e3636382e33383720312e3432362e353920322e3139372e353973312e3532392d2e32303420322e3139372d2e35396c31342e3836342d382e363535632e3635372d2e33393420312e3230342d2e393520312e3538392d312e363136732e3539342d312e3431382e3630392d322e3138375635352e353338632e3031332d2e3737352d2e3138352d312e3533382d2e3537322d322e32303861342e323520342e32352030203020302d312e3632352d312e3539356c2d31342e3939332d382e3738367a222066696c6c3d2223666666222f3e3c646566733e3c6c696e6561724772616469656e742069643d2242222078313d2230222079313d2230222078323d22323730222079323d2232373022206772616469656e74556e6974733d227573657253706163654f6e557365223e3c73746f702073746f702d636f6c6f723d2223636235656565222f3e3c73746f70206f66667365743d2231222073746f702d636f6c6f723d2223306364376534222073746f702d6f7061636974793d222e3939222f3e3c2f6c696e6561724772616469656e743e3c2f646566733e3c7465787420783d2233322e352220793d223233312220666f6e742d73697a653d223237222066696c6c3d2223666666222066696c7465723d2275726c282341292220666f6e742d66616d696c793d22506c7573204a616b617274612053616e732c44656a6156752053616e732c4e6f746f20436f6c6f7220456d6f6a692c4170706c6520436f6c6f7220456d6f6a692c73616e732d73657269662220666f6e742d7765696768743d22626f6c64223e",
  "linkReferences": {},
  "deployedLinkReferences": {}
}