{
  "_format": "hh-sol-artifact-1",
  "contractName": "Domains",
  "sourceName": "contracts/Domains.sol",
  "abi": [
    {
      "inputs": [
        {
          "internalType": "string",
          "name": "_tld",
          "type": "string"
        }
      ],
      "stateMutability": "payable",
      "type": "constructor"
    },
    {
      "anonymous": false,
      "inputs": [
        {
          "indexed": true,
          "internalType": "address",
          "name": "owner",
          "type": "address"
        },
        {
          "indexed": true,
          "internalType": "address",
          "name": "approved",
          "type": "address"
        },
        {
          "indexed": true,
          "internalType": "uint256",
          "name": "tokenId",
          "type": "uint256"
        }
      ],
      "name": "Approval",
      "type": "event"
    },
    {
      "anonymous": false,
      "inputs": [
        {
          "indexed": true,
          "internalType": "address",
          "name": "owner",
          "type": "address"
        },
        {
          "indexed": true,
          "internalType": "address",
          "name": "operator",
          "type": "address"
        },
        {
          "indexed": false,
          "internalType": "bool",
          "name": "approved",
          "type": "bool"
        }
      ],
      "name": "ApprovalForAll",
      "type": "event"
    },
    {
      "anonymous": false,
      "inputs": [
        {
          "indexed": true,
          "internalType": "address",
          "name": "from",
          "type": "address"
        },
        {
          "indexed": true,
          "internalType": "address",
          "name": "to",
          "type": "address"
        },
        {
          "indexed": true,
          "internalType": "uint256",
          "name": "tokenId",
          "type": "uint256"
        }
      ],
      "name": "Transfer",
      "type": "event"
    },
    {
      "inputs": [
        {
          "internalType": "address",
          "name": "to",
          "type": "address"
        },
        {
          "internalType": "uint256",
          "name": "tokenId",
          "type": "uint256"
        }
      ],
      "name": "approve",
      "outputs": [],
      "stateMutability": "nonpayable",
      "type": "function"
    },
    {
      "inputs": [
        {
          "internalType": "address",
          "name": "owner",
          "type": "address"
        }
      ],
      "name": "balanceOf",
      "outputs": [
        {
          "internalType": "uint256",
          "name": "",
          "type": "uint256"
        }
      ],
      "stateMutability": "view",
      "type": "function"
    },
    {
      "inputs": [
        {
          "internalType": "string",
          "name": "",
          "type": "string"
        }
      ],
      "name": "domains",
      "outputs": [
        {
          "internalType": "address",
          "name": "",
          "type": "address"
        }
      ],
      "stateMutability": "view",
      "type": "function"
    },
    {
      "inputs": [
        {
          "internalType": "string",
          "name": "name",
          "type": "string"
        }
      ],
      "name": "getAddress",
      "outputs": [
        {
          "internalType": "address",
          "name": "domain",
          "type": "address"
        }
      ],
      "stateMutability": "view",
      "type": "function"
    },
    {
      "inputs": [
        {
          "internalType": "uint256",
          "name": "tokenId",
          "type": "uint256"
        }
      ],
      "name": "getApproved",
      "outputs": [
        {
          "internalType": "address",
          "name": "",
          "type": "address"
        }
      ],
      "stateMutability": "view",
      "type": "function"
    },
    {
      "inputs": [
        {
          "internalType": "string",
          "name": "name",
          "type": "string"
        }
      ],
      "name": "getRecord",
      "outputs": [
        {
          "internalType": "string",
          "name": "",
          "type": "string"
        }
      ],
      "stateMutability": "view",
      "type": "function"
    },
    {
      "inputs": [
        {
          "internalType": "address",
          "name": "owner",
          "type": "address"
        },
        {
          "internalType": "address",
          "name": "operator",
          "type": "address"
        }
      ],
      "name": "isApprovedForAll",
      "outputs": [
        {
          "internalType": "bool",
          "name": "",
          "type": "bool"
        }
      ],
      "stateMutability": "view",
      "type": "function"
    },
    {
      "inputs": [],
      "name": "name",
      "outputs": [
        {
          "internalType": "string",
          "name": "",
          "type": "string"
        }
      ],
      "stateMutability": "view",
      "type": "function"
    },
    {
      "inputs": [
        {
          "internalType": "uint256",
          "name": "tokenId",
          "type": "uint256"
        }
      ],
      "name": "ownerOf",
      "outputs": [
        {
          "internalType": "address",
          "name": "",
          "type": "address"
        }
      ],
      "stateMutability": "view",
      "type": "function"
    },
    {
      "inputs": [
        {
          "internalType": "string",
          "name": "",
          "type": "string"
        }
      ],
      "name": "records",
      "outputs": [
        {
          "internalType": "string",
          "name": "",
          "type": "string"
        }
      ],
      "stateMutability": "view",
      "type": "function"
    },
    {
      "inputs": [
        {
          "internalType": "string",
          "name": "name",
          "type": "string"
        }
      ],
      "name": "register",
      "outputs": [],
      "stateMutability": "payable",
      "type": "function"
    },
    {
      "inputs": [
        {
          "internalType": "address",
          "name": "from",
          "type": "address"
        },
        {
          "internalType": "address",
          "name": "to",
          "type": "address"
        },
        {
          "internalType": "uint256",
          "name": "tokenId",
          "type": "uint256"
        }
      ],
      "name": "safeTransferFrom",
      "outputs": [],
      "stateMutability": "nonpayable",
      "type": "function"
    },
    {
      "inputs": [
        {
          "internalType": "address",
          "name": "from",
          "type": "address"
        },
        {
          "internalType": "address",
          "name": "to",
          "type": "address"
        },
        {
          "internalType": "uint256",
          "name": "tokenId",
          "type": "uint256"
        },
        {
          "internalType": "bytes",
          "name": "_data",
          "type": "bytes"
        }
      ],
      "name": "safeTransferFrom",
      "outputs": [],
      "stateMutability": "nonpayable",
      "type": "function"
    },
    {
      "inputs": [
        {
          "internalType": "address",
          "name": "operator",
          "type": "address"
        },
        {
          "internalType": "bool",
          "name": "approved",
          "type": "bool"
        }
      ],
      "name": "setApprovalForAll",
      "outputs": [],
      "stateMutability": "nonpayable",
      "type": "function"
    },
    {
      "inputs": [
        {
          "internalType": "string",
          "name": "name",
          "type": "string"
        },
        {
          "internalType": "string",
          "name": "record",
          "type": "string"
        }
      ],
      "name": "setRecord",
      "outputs": [],
      "stateMutability": "nonpayable",
      "type": "function"
    },
    {
      "inputs": [
        {
          "internalType": "bytes4",
          "name": "interfaceId",
          "type": "bytes4"
        }
      ],
      "name": "supportsInterface",
      "outputs": [
        {
          "internalType": "bool",
          "name": "",
          "type": "bool"
        }
      ],
      "stateMutability": "view",
      "type": "function"
    },
    {
      "inputs": [],
      "name": "symbol",
      "outputs": [
        {
          "internalType": "string",
          "name": "",
          "type": "string"
        }
      ],
      "stateMutability": "view",
      "type": "function"
    },
    {
      "inputs": [],
      "name": "tld",
      "outputs": [
        {
          "internalType": "string",
          "name": "",
          "type": "string"
        }
      ],
      "stateMutability": "view",
      "type": "function"
    },
    {
      "inputs": [
        {
          "internalType": "uint256",
          "name": "tokenId",
          "type": "uint256"
        }
      ],
      "name": "tokenURI",
      "outputs": [
        {
          "internalType": "string",
          "name": "",
          "type": "string"
        }
      ],
      "stateMutability": "view",
      "type": "function"
    },
    {
      "inputs": [
        {
          "internalType": "address",
          "name": "from",
          "type": "address"
        },
        {
          "internalType": "address",
          "name": "to",
          "type": "address"
        },
        {
          "internalType": "uint256",
          "name": "tokenId",
          "type": "uint256"
        }
      ],
      "name": "transferFrom",
      "outputs": [],
      "stateMutability": "nonpayable",
      "type": "function"
    }
  ],
  "bytecode": "0x6080604052604051806108a0016040528061086b8152602001620049c761086b9139600990805190602001906200003892919062000287565b506040518060400160405280600d81526020017f3c2f746578743e3c2f7376673e00000000000000000000000000000000000000815250600a90805190602001906200008692919062000287565b5060405162005232380380620052328339818101604052810190620000ac9190620004d4565b6040518060400160405280601281526020017f4672657368204e616d65205365727669636500000000000000000000000000008152506040518060400160405280600581526020017f465245534800000000000000000000000000000000000000000000000000000081525081600090805190602001906200013092919062000287565b5080600190805190602001906200014992919062000287565b50505080600890805190602001906200016492919062000287565b50620001b16040518060400160405280601881526020017f2573206e616d652073657276696365206465706c6f796564000000000000000081525082620001b860201b6200145d1760201c565b5062000622565b6200025a8282604051602401620001d192919062000582565b6040516020818303038152906040527f4b5c4277000000000000000000000000000000000000000000000000000000007bffffffffffffffffffffffffffffffffffffffffffffffffffffffff19166020820180517bffffffffffffffffffffffffffffffffffffffffffffffffffffffff83818316178352505050506200025e60201b60201c565b5050565b60008151905060006a636f6e736f6c652e6c6f679050602083016000808483855afa5050505050565b8280546200029590620005ec565b90600052602060002090601f016020900481019282620002b9576000855562000305565b82601f10620002d457805160ff191683800117855562000305565b8280016001018555821562000305579182015b8281111562000304578251825591602001919060010190620002e7565b5b50905062000314919062000318565b5090565b5b808211156200033357600081600090555060010162000319565b5090565b6000604051905090565b600080fd5b600080fd5b600080fd5b600080fd5b6000601f19601f8301169050919050565b7f4e487b7100000000000000000000000000000000000000000000000000000000600052604160045260246000fd5b620003a08262000355565b810181811067ffffffffffffffff82111715620003c257620003c162000366565b5b80604052505050565b6000620003d762000337565b9050620003e5828262000395565b919050565b600067ffffffffffffffff82111562000408576200040762000366565b5b620004138262000355565b9050602081019050919050565b60005b838110156200044057808201518184015260208101905062000423565b8381111562000450576000848401525b50505050565b60006200046d6200046784620003ea565b620003cb565b9050828152602081018484840111156200048c576200048b62000350565b5b6200049984828562000420565b509392505050565b600082601f830112620004b957620004b86200034b565b5b8151620004cb84826020860162000456565b91505092915050565b600060208284031215620004ed57620004ec62000341565b5b600082015167ffffffffffffffff8111156200050e576200050d62000346565b5b6200051c84828501620004a1565b91505092915050565b600081519050919050565b600082825260208201905092915050565b60006200054e8262000525565b6200055a818562000530565b93506200056c81856020860162000420565b620005778162000355565b840191505092915050565b600060408201905081810360008301526200059e818562000541565b90508181036020830152620005b4818462000541565b90509392505050565b7f4e487b7100000000000000000000000000000000000000000000000000000000600052602260045260246000fd5b600060028204905060018216806200060557607f821691505b602082108114156200061c576200061b620005bd565b5b50919050565b61439580620006326000396000f3fe60806040526004361061011f5760003560e01c80636352211e116100a0578063bf40fac111610064578063bf40fac11461041d578063c1880a981461045a578063c87b56dd14610483578063e985e9c5146104c0578063f2c298be146104fd5761011f565b80636352211e1461032657806370a082311461036357806395d89b41146103a0578063a22cb465146103cb578063b88d4fde146103f45761011f565b806323b872dd116100e757806323b872dd1461022f57806326449235146102585780632d5514321461029557806342842e0e146102c0578063541e771d146102e95761011f565b806301ffc9a71461012457806306fdde0314610161578063081812fc1461018c578063095ea7b3146101c957806311dd8845146101f2575b600080fd5b34801561013057600080fd5b5061014b600480360381019061014691906129ab565b610519565b60405161015891906129f3565b60405180910390f35b34801561016d57600080fd5b506101766105fb565b6040516101839190612aa7565b60405180910390f35b34801561019857600080fd5b506101b360048036038101906101ae9190612aff565b61068d565b6040516101c09190612b6d565b60405180910390f35b3480156101d557600080fd5b506101f060048036038101906101eb9190612bb4565b610712565b005b3480156101fe57600080fd5b5061021960048036038101906102149190612c59565b61082a565b6040516102269190612aa7565b60405180910390f35b34801561023b57600080fd5b5061025660048036038101906102519190612ca6565b6108dd565b005b34801561026457600080fd5b5061027f600480360381019061027a9190612e29565b61093d565b60405161028c9190612b6d565b60405180910390f35b3480156102a157600080fd5b506102aa610986565b6040516102b79190612aa7565b60405180910390f35b3480156102cc57600080fd5b506102e760048036038101906102e29190612ca6565b610a14565b005b3480156102f557600080fd5b50610310600480360381019061030b9190612e29565b610a34565b60405161031d9190612aa7565b60405180910390f35b34801561033257600080fd5b5061034d60048036038101906103489190612aff565b610aea565b60405161035a9190612b6d565b60405180910390f35b34801561036f57600080fd5b5061038a60048036038101906103859190612e72565b610b9c565b6040516103979190612eae565b60405180910390f35b3480156103ac57600080fd5b506103b5610c54565b6040516103c29190612aa7565b60405180910390f35b3480156103d757600080fd5b506103f260048036038101906103ed9190612ef5565b610ce6565b005b34801561040057600080fd5b5061041b60048036038101906104169190612fd6565b610cfc565b005b34801561042957600080fd5b50610444600480360381019061043f9190612c59565b610d5e565b6040516104519190612b6d565b60405180910390f35b34801561046657600080fd5b50610481600480360381019061047c9190613059565b610da9565b005b34801561048f57600080fd5b506104aa60048036038101906104a59190612aff565b610e57565b6040516104b79190612aa7565b60405180910390f35b3480156104cc57600080fd5b506104e760048036038101906104e291906130da565b610fa9565b6040516104f491906129f3565b60405180910390f35b61051760048036038101906105129190612c59565b61103d565b005b60007f80ac58cd000000000000000000000000000000000000000000000000000000007bffffffffffffffffffffffffffffffffffffffffffffffffffffffff1916827bffffffffffffffffffffffffffffffffffffffffffffffffffffffff191614806105e457507f5b5e139f000000000000000000000000000000000000000000000000000000007bffffffffffffffffffffffffffffffffffffffffffffffffffffffff1916827bffffffffffffffffffffffffffffffffffffffffffffffffffffffff1916145b806105f457506105f3826114f9565b5b9050919050565b60606000805461060a90613149565b80601f016020809104026020016040519081016040528092919081815260200182805461063690613149565b80156106835780601f1061065857610100808354040283529160200191610683565b820191906000526020600020905b81548152906001019060200180831161066657829003601f168201915b5050505050905090565b600061069882611563565b6106d7576040517f08c379a00000000000000000000000000000000000000000000000000000000081526004016106ce906131ed565b60405180910390fd5b6004600083815260200190815260200160002060009054906101000a900473ffffffffffffffffffffffffffffffffffffffff169050919050565b600061071d82610aea565b90508073ffffffffffffffffffffffffffffffffffffffff168373ffffffffffffffffffffffffffffffffffffffff16141561078e576040517f08c379a00000000000000000000000000000000000000000000000000000000081526004016107859061327f565b60405180910390fd5b8073ffffffffffffffffffffffffffffffffffffffff166107ad6115cf565b73ffffffffffffffffffffffffffffffffffffffff1614806107dc57506107db816107d66115cf565b610fa9565b5b61081b576040517f08c379a000000000000000000000000000000000000000000000000000000000815260040161081290613311565b60405180910390fd5b61082583836115d7565b505050565b6060600c838360405161083e929190613361565b9081526020016040518091039020805461085790613149565b80601f016020809104026020016040519081016040528092919081815260200182805461088390613149565b80156108d05780601f106108a5576101008083540402835291602001916108d0565b820191906000526020600020905b8154815290600101906020018083116108b357829003601f168201915b5050505050905092915050565b6108ee6108e86115cf565b82611690565b61092d576040517f08c379a0000000000000000000000000000000000000000000000000000000008152600401610924906133ec565b60405180910390fd5b61093883838361176e565b505050565b600b818051602081018201805184825260208301602085012081835280955050505050506000915054906101000a900473ffffffffffffffffffffffffffffffffffffffff1681565b6008805461099390613149565b80601f01602080910402602001604051908101604052809291908181526020018280546109bf90613149565b8015610a0c5780601f106109e157610100808354040283529160200191610a0c565b820191906000526020600020905b8154815290600101906020018083116109ef57829003601f168201915b505050505081565b610a2f83838360405180602001604052806000815250610cfc565b505050565b600c818051602081018201805184825260208301602085012081835280955050505050506000915090508054610a6990613149565b80601f0160208091040260200160405190810160405280929190818152602001828054610a9590613149565b8015610ae25780601f10610ab757610100808354040283529160200191610ae2565b820191906000526020600020905b815481529060010190602001808311610ac557829003601f168201915b505050505081565b6000806002600084815260200190815260200160002060009054906101000a900473ffffffffffffffffffffffffffffffffffffffff169050600073ffffffffffffffffffffffffffffffffffffffff168173ffffffffffffffffffffffffffffffffffffffff161415610b93576040517f08c379a0000000000000000000000000000000000000000000000000000000008152600401610b8a9061347e565b60405180910390fd5b80915050919050565b60008073ffffffffffffffffffffffffffffffffffffffff168273ffffffffffffffffffffffffffffffffffffffff161415610c0d576040517f08c379a0000000000000000000000000000000000000000000000000000000008152600401610c0490613510565b60405180910390fd5b600360008373ffffffffffffffffffffffffffffffffffffffff1673ffffffffffffffffffffffffffffffffffffffff168152602001908152602001600020549050919050565b606060018054610c6390613149565b80601f0160208091040260200160405190810160405280929190818152602001828054610c8f90613149565b8015610cdc5780601f10610cb157610100808354040283529160200191610cdc565b820191906000526020600020905b815481529060010190602001808311610cbf57829003601f168201915b5050505050905090565b610cf8610cf16115cf565b83836119d5565b5050565b610d0d610d076115cf565b83611690565b610d4c576040517f08c379a0000000000000000000000000000000000000000000000000000000008152600401610d43906133ec565b60405180910390fd5b610d5884848484611b42565b50505050565b6000600b8383604051610d72929190613361565b908152602001604051809103902060009054906101000a900473ffffffffffffffffffffffffffffffffffffffff16905092915050565b3373ffffffffffffffffffffffffffffffffffffffff16600b8585604051610dd2929190613361565b908152602001604051809103902060009054906101000a900473ffffffffffffffffffffffffffffffffffffffff1673ffffffffffffffffffffffffffffffffffffffff1614610e2157600080fd5b8181600c8686604051610e35929190613361565b90815260200160405180910390209190610e50929190612816565b5050505050565b6060610e6282611563565b610ea1576040517f08c379a0000000000000000000000000000000000000000000000000000000008152600401610e98906135a2565b60405180910390fd5b6000600660008481526020019081526020016000208054610ec190613149565b80601f0160208091040260200160405190810160405280929190818152602001828054610eed90613149565b8015610f3a5780601f10610f0f57610100808354040283529160200191610f3a565b820191906000526020600020905b815481529060010190602001808311610f1d57829003601f168201915b505050505090506000610f4b611b9e565b9050600081511415610f61578192505050610fa4565b600082511115610f96578082604051602001610f7e9291906135f3565b60405160208183030381529060405292505050610fa4565b610f9f84611bb5565b925050505b919050565b6000600560008473ffffffffffffffffffffffffffffffffffffffff1673ffffffffffffffffffffffffffffffffffffffff16815260200190815260200160002060008373ffffffffffffffffffffffffffffffffffffffff1673ffffffffffffffffffffffffffffffffffffffff16815260200190815260200160002060009054906101000a900460ff16905092915050565b600073ffffffffffffffffffffffffffffffffffffffff16600b8383604051611067929190613361565b908152602001604051809103902060009054906101000a900473ffffffffffffffffffffffffffffffffffffffff1673ffffffffffffffffffffffffffffffffffffffff16146110b657600080fd5b60006110c28383611c5c565b905080341015611107576040517f08c379a00000000000000000000000000000000000000000000000000000000081526004016110fe90613663565b60405180910390fd5b60008383600860405160200161111f93929190613763565b60405160208183030381529060405290506000600982600a60405160200161114993929190613794565b604051602081830303815290604052905060006111666007611cfc565b905060006111b787878080601f016020809104026020016040519081016040528093929190818152602001838380828437600081840152601f19601f82011690508083019250505050505050611d0a565b905060006111c482611ebf565b90506112b86040518060600160405280603181526020016142b66031913989898080601f016020809104026020016040519081016040528093929190818152602001838380828437600081840152601f19601f820116905080830192505050505050506008805461123490613149565b80601f016020809104026020016040519081016040528092919081815260200182805461126090613149565b80156112ad5780601f10611282576101008083540402835291602001916112ad565b820191906000526020600020905b81548152906001019060200180831161129057829003601f168201915b505050505086612020565b60006112ee866112c7876120c2565b846040516020016112da93929190613941565b6040516020818303038152906040526120c2565b905060008160405160200161130391906139ea565b604051602081830303815290604052905061133560405180606001604052806039815260200161427d60399139612226565b6113746040518060400160405280600e81526020017f46696e616c20746f6b656e5552490000000000000000000000000000000000008152508261145d565b6113956040518060600160405280603981526020016142e760399139612226565b61139f33866122bf565b6113a985826122dd565b33600b8b8b6040516113bc929190613361565b908152602001604051809103902060006101000a81548173ffffffffffffffffffffffffffffffffffffffff021916908373ffffffffffffffffffffffffffffffffffffffff1602179055506114476040518060400160405280601b81526020017f2573206861732072656769737465726564206120646f6d61696e21000000000081525033612351565b61145160076123ed565b50505050505050505050565b6114f58282604051602401611473929190613a0c565b6040516020818303038152906040527f4b5c4277000000000000000000000000000000000000000000000000000000007bffffffffffffffffffffffffffffffffffffffffffffffffffffffff19166020820180517bffffffffffffffffffffffffffffffffffffffffffffffffffffffff8381831617835250505050612403565b5050565b60007f01ffc9a7000000000000000000000000000000000000000000000000000000007bffffffffffffffffffffffffffffffffffffffffffffffffffffffff1916827bffffffffffffffffffffffffffffffffffffffffffffffffffffffff1916149050919050565b60008073ffffffffffffffffffffffffffffffffffffffff166002600084815260200190815260200160002060009054906101000a900473ffffffffffffffffffffffffffffffffffffffff1673ffffffffffffffffffffffffffffffffffffffff1614159050919050565b600033905090565b816004600083815260200190815260200160002060006101000a81548173ffffffffffffffffffffffffffffffffffffffff021916908373ffffffffffffffffffffffffffffffffffffffff160217905550808273ffffffffffffffffffffffffffffffffffffffff1661164a83610aea565b73ffffffffffffffffffffffffffffffffffffffff167f8c5be1e5ebec7d5bd14f71427d1e84f3dd0314c0f7b2291e5b200ac8c7c3b92560405160405180910390a45050565b600061169b82611563565b6116da576040517f08c379a00000000000000000000000000000000000000000000000000000000081526004016116d190613ab5565b60405180910390fd5b60006116e583610aea565b90508073ffffffffffffffffffffffffffffffffffffffff168473ffffffffffffffffffffffffffffffffffffffff16148061175457508373ffffffffffffffffffffffffffffffffffffffff1661173c8461068d565b73ffffffffffffffffffffffffffffffffffffffff16145b8061176557506117648185610fa9565b5b91505092915050565b8273ffffffffffffffffffffffffffffffffffffffff1661178e82610aea565b73ffffffffffffffffffffffffffffffffffffffff16146117e4576040517f08c379a00000000000000000000000000000000000000000000000000000000081526004016117db90613b47565b60405180910390fd5b600073ffffffffffffffffffffffffffffffffffffffff168273ffffffffffffffffffffffffffffffffffffffff161415611854576040517f08c379a000000000000000000000000000000000000000000000000000000000815260040161184b90613bd9565b60405180910390fd5b61185f83838361242c565b61186a6000826115d7565b6001600360008573ffffffffffffffffffffffffffffffffffffffff1673ffffffffffffffffffffffffffffffffffffffff16815260200190815260200160002060008282546118ba9190613c28565b925050819055506001600360008473ffffffffffffffffffffffffffffffffffffffff1673ffffffffffffffffffffffffffffffffffffffff16815260200190815260200160002060008282546119119190613c5c565b92505081905550816002600083815260200190815260200160002060006101000a81548173ffffffffffffffffffffffffffffffffffffffff021916908373ffffffffffffffffffffffffffffffffffffffff160217905550808273ffffffffffffffffffffffffffffffffffffffff168473ffffffffffffffffffffffffffffffffffffffff167fddf252ad1be2c89b69c2b068fc378daa952ba7f163c4a11628f55a4df523b3ef60405160405180910390a46119d0838383612431565b505050565b8173ffffffffffffffffffffffffffffffffffffffff168373ffffffffffffffffffffffffffffffffffffffff161415611a44576040517f08c379a0000000000000000000000000000000000000000000000000000000008152600401611a3b90613cfe565b60405180910390fd5b80600560008573ffffffffffffffffffffffffffffffffffffffff1673ffffffffffffffffffffffffffffffffffffffff16815260200190815260200160002060008473ffffffffffffffffffffffffffffffffffffffff1673ffffffffffffffffffffffffffffffffffffffff16815260200190815260200160002060006101000a81548160ff0219169083151502179055508173ffffffffffffffffffffffffffffffffffffffff168373ffffffffffffffffffffffffffffffffffffffff167f17307eab39ab6107e8899845ad3d59bd9653f200f220920489ca2b5937696c3183604051611b3591906129f3565b60405180910390a3505050565b611b4d84848461176e565b611b5984848484612436565b611b98576040517f08c379a0000000000000000000000000000000000000000000000000000000008152600401611b8f90613d90565b60405180910390fd5b50505050565b606060405180602001604052806000815250905090565b6060611bc082611563565b611bff576040517f08c379a0000000000000000000000000000000000000000000000000000000008152600401611bf690613e22565b60405180910390fd5b6000611c09611b9e565b90506000815111611c295760405180602001604052806000815250611c54565b80611c3384611ebf565b604051602001611c449291906135f3565b6040516020818303038152906040525b915050919050565b600080611cac84848080601f016020809104026020016040519081016040528093929190818152602001838380828437600081840152601f19601f82011690508083019250505050505050611d0a565b905060008111611cbb57600080fd5b6003811415611cd5576706f05b59d3b20000915050611cf6565b6004811415611ce9576101fe915050611cf6565b67016345785d8a00009150505b92915050565b600081600001549050919050565b60008060008084519050600092505b80821015611eb4576000858381518110611d3657611d35613e42565b5b602001015160f81c60f81b9050608060f81b817effffffffffffffffffffffffffffffffffffffffffffffffffffffffffffff19161015611d8557600183611d7e9190613c5c565b9250611ea0565b60e060f81b817effffffffffffffffffffffffffffffffffffffffffffffffffffffffffffff19161015611dc757600283611dc09190613c5c565b9250611e9f565b60f060f81b817effffffffffffffffffffffffffffffffffffffffffffffffffffffffffffff19161015611e0957600383611e029190613c5c565b9250611e9e565b60f8801b817effffffffffffffffffffffffffffffffffffffffffffffffffffffffffffff19161015611e4a57600483611e439190613c5c565b9250611e9d565b60fc60f81b817effffffffffffffffffffffffffffffffffffffffffffffffffffffffffffff19161015611e8c57600583611e859190613c5c565b9250611e9c565b600683611e999190613c5c565b92505b5b5b5b5b508280611eac90613e71565b935050611d19565b829350505050919050565b60606000821415611f07576040518060400160405280600181526020017f3000000000000000000000000000000000000000000000000000000000000000815250905061201b565b600082905060005b60008214611f39578080611f2290613e71565b915050600a82611f329190613ee9565b9150611f0f565b60008167ffffffffffffffff811115611f5557611f54612cfe565b5b6040519080825280601f01601f191660200182016040528015611f875781602001600182028036833780820191505090505b5090505b6000851461201457600182611fa09190613c28565b9150600a85611faf9190613f1a565b6030611fbb9190613c5c565b60f81b818381518110611fd157611fd0613e42565b5b60200101907effffffffffffffffffffffffffffffffffffffffffffffffffffffffffffff1916908160001a905350600a8561200d9190613ee9565b9450611f8b565b8093505050505b919050565b6120bc8484848460405160240161203a9493929190613f4b565b6040516020818303038152906040527f9fd009f5000000000000000000000000000000000000000000000000000000007bffffffffffffffffffffffffffffffffffffffffffffffffffffffff19166020820180517bffffffffffffffffffffffffffffffffffffffffffffffffffffffff8381831617835250505050612403565b50505050565b60606000825114156120e557604051806020016040528060008152509050612221565b600060405180606001604052806040815260200161432060409139905060006003600285516121149190613c5c565b61211e9190613ee9565b600461212a9190613fa5565b67ffffffffffffffff81111561214357612142612cfe565b5b6040519080825280601f01601f1916602001820160405280156121755781602001600182028036833780820191505090505b509050600182016020820185865187015b808210156121e1576003820191508151603f8160121c168501518453600184019350603f81600c1c168501518453600184019350603f8160061c168501518453600184019350603f8116850151845360018401935050612186565b50506003865106600181146121fd576002811461221057612218565b603d6001830353603d6002830353612218565b603d60018303535b50505080925050505b919050565b6122bc8160405160240161223a9190612aa7565b6040516020818303038152906040527f41304fac000000000000000000000000000000000000000000000000000000007bffffffffffffffffffffffffffffffffffffffffffffffffffffffff19166020820180517bffffffffffffffffffffffffffffffffffffffffffffffffffffffff8381831617835250505050612403565b50565b6122d98282604051806020016040528060008152506125be565b5050565b6122e682611563565b612325576040517f08c379a000000000000000000000000000000000000000000000000000000000815260040161231c90614071565b60405180910390fd5b8060066000848152602001908152602001600020908051906020019061234c92919061289c565b505050565b6123e98282604051602401612367929190614091565b6040516020818303038152906040527f319af333000000000000000000000000000000000000000000000000000000007bffffffffffffffffffffffffffffffffffffffffffffffffffffffff19166020820180517bffffffffffffffffffffffffffffffffffffffffffffffffffffffff8381831617835250505050612403565b5050565b6001816000016000828254019250508190555050565b60008151905060006a636f6e736f6c652e6c6f679050602083016000808483855afa5050505050565b505050565b505050565b60006124578473ffffffffffffffffffffffffffffffffffffffff16612619565b156125b1578373ffffffffffffffffffffffffffffffffffffffff1663150b7a026124806115cf565b8786866040518563ffffffff1660e01b81526004016124a29493929190614116565b6020604051808303816000875af19250505080156124de57506040513d601f19601f820116820180604052508101906124db9190614177565b60015b612561573d806000811461250e576040519150601f19603f3d011682016040523d82523d6000602084013e612513565b606091505b50600081511415612559576040517f08c379a000000000000000000000000000000000000000000000000000000000815260040161255090613d90565b60405180910390fd5b805181602001fd5b63150b7a0260e01b7bffffffffffffffffffffffffffffffffffffffffffffffffffffffff1916817bffffffffffffffffffffffffffffffffffffffffffffffffffffffff1916149150506125b6565b600190505b949350505050565b6125c8838361263c565b6125d56000848484612436565b612614576040517f08c379a000000000000000000000000000000000000000000000000000000000815260040161260b90613d90565b60405180910390fd5b505050565b6000808273ffffffffffffffffffffffffffffffffffffffff163b119050919050565b600073ffffffffffffffffffffffffffffffffffffffff168273ffffffffffffffffffffffffffffffffffffffff1614156126ac576040517f08c379a00000000000000000000000000000000000000000000000000000000081526004016126a3906141f0565b60405180910390fd5b6126b581611563565b156126f5576040517f08c379a00000000000000000000000000000000000000000000000000000000081526004016126ec9061425c565b60405180910390fd5b6127016000838361242c565b6001600360008473ffffffffffffffffffffffffffffffffffffffff1673ffffffffffffffffffffffffffffffffffffffff16815260200190815260200160002060008282546127519190613c5c565b92505081905550816002600083815260200190815260200160002060006101000a81548173ffffffffffffffffffffffffffffffffffffffff021916908373ffffffffffffffffffffffffffffffffffffffff160217905550808273ffffffffffffffffffffffffffffffffffffffff16600073ffffffffffffffffffffffffffffffffffffffff167fddf252ad1be2c89b69c2b068fc378daa952ba7f163c4a11628f55a4df523b3ef60405160405180910390a461281260008383612431565b5050565b82805461282290613149565b90600052602060002090601f016020900481019282612844576000855561288b565b82601f1061285d57803560ff191683800117855561288b565b8280016001018555821561288b579182015b8281111561288a57823582559160200191906001019061286f565b5b5090506128989190612922565b5090565b8280546128a890613149565b90600052602060002090601f0160209004810192826128ca5760008555612911565b82601f106128e357805160ff1916838001178555612911565b82800160010185558215612911579182015b828111156129105782518255916020019190600101906128f5565b5b50905061291e9190612922565b5090565b5b8082111561293b576000816000905550600101612923565b5090565b6000604051905090565b600080fd5b600080fd5b60007fffffffff0000000000000000000000000000000000000000000000000000000082169050919050565b61298881612953565b811461299357600080fd5b50565b6000813590506129a58161297f565b92915050565b6000602082840312156129c1576129c0612949565b5b60006129cf84828501612996565b91505092915050565b60008115159050919050565b6129ed816129d8565b82525050565b6000602082019050612a0860008301846129e4565b92915050565b600081519050919050565b600082825260208201905092915050565b60005b83811015612a48578082015181840152602081019050612a2d565b83811115612a57576000848401525b50505050565b6000601f19601f8301169050919050565b6000612a7982612a0e565b612a838185612a19565b9350612a93818560208601612a2a565b612a9c81612a5d565b840191505092915050565b60006020820190508181036000830152612ac18184612a6e565b905092915050565b6000819050919050565b612adc81612ac9565b8114612ae757600080fd5b50565b600081359050612af981612ad3565b92915050565b600060208284031215612b1557612b14612949565b5b6000612b2384828501612aea565b91505092915050565b600073ffffffffffffffffffffffffffffffffffffffff82169050919050565b6000612b5782612b2c565b9050919050565b612b6781612b4c565b82525050565b6000602082019050612b826000830184612b5e565b92915050565b612b9181612b4c565b8114612b9c57600080fd5b50565b600081359050612bae81612b88565b92915050565b60008060408385031215612bcb57612bca612949565b5b6000612bd985828601612b9f565b9250506020612bea85828601612aea565b9150509250929050565b600080fd5b600080fd5b600080fd5b60008083601f840112612c1957612c18612bf4565b5b8235905067ffffffffffffffff811115612c3657612c35612bf9565b5b602083019150836001820283011115612c5257612c51612bfe565b5b9250929050565b60008060208385031215612c7057612c6f612949565b5b600083013567ffffffffffffffff811115612c8e57612c8d61294e565b5b612c9a85828601612c03565b92509250509250929050565b600080600060608486031215612cbf57612cbe612949565b5b6000612ccd86828701612b9f565b9350506020612cde86828701612b9f565b9250506040612cef86828701612aea565b9150509250925092565b600080fd5b7f4e487b7100000000000000000000000000000000000000000000000000000000600052604160045260246000fd5b612d3682612a5d565b810181811067ffffffffffffffff82111715612d5557612d54612cfe565b5b80604052505050565b6000612d6861293f565b9050612d748282612d2d565b919050565b600067ffffffffffffffff821115612d9457612d93612cfe565b5b612d9d82612a5d565b9050602081019050919050565b82818337600083830152505050565b6000612dcc612dc784612d79565b612d5e565b905082815260208101848484011115612de857612de7612cf9565b5b612df3848285612daa565b509392505050565b600082601f830112612e1057612e0f612bf4565b5b8135612e20848260208601612db9565b91505092915050565b600060208284031215612e3f57612e3e612949565b5b600082013567ffffffffffffffff811115612e5d57612e5c61294e565b5b612e6984828501612dfb565b91505092915050565b600060208284031215612e8857612e87612949565b5b6000612e9684828501612b9f565b91505092915050565b612ea881612ac9565b82525050565b6000602082019050612ec36000830184612e9f565b92915050565b612ed2816129d8565b8114612edd57600080fd5b50565b600081359050612eef81612ec9565b92915050565b60008060408385031215612f0c57612f0b612949565b5b6000612f1a85828601612b9f565b9250506020612f2b85828601612ee0565b9150509250929050565b600067ffffffffffffffff821115612f5057612f4f612cfe565b5b612f5982612a5d565b9050602081019050919050565b6000612f79612f7484612f35565b612d5e565b905082815260208101848484011115612f9557612f94612cf9565b5b612fa0848285612daa565b509392505050565b600082601f830112612fbd57612fbc612bf4565b5b8135612fcd848260208601612f66565b91505092915050565b60008060008060808587031215612ff057612fef612949565b5b6000612ffe87828801612b9f565b945050602061300f87828801612b9f565b935050604061302087828801612aea565b925050606085013567ffffffffffffffff8111156130415761304061294e565b5b61304d87828801612fa8565b91505092959194509250565b6000806000806040858703121561307357613072612949565b5b600085013567ffffffffffffffff8111156130915761309061294e565b5b61309d87828801612c03565b9450945050602085013567ffffffffffffffff8111156130c0576130bf61294e565b5b6130cc87828801612c03565b925092505092959194509250565b600080604083850312156130f1576130f0612949565b5b60006130ff85828601612b9f565b925050602061311085828601612b9f565b9150509250929050565b7f4e487b7100000000000000000000000000000000000000000000000000000000600052602260045260246000fd5b6000600282049050600182168061316157607f821691505b602082108114156131755761317461311a565b5b50919050565b7f4552433732313a20617070726f76656420717565727920666f72206e6f6e657860008201527f697374656e7420746f6b656e0000000000000000000000000000000000000000602082015250565b60006131d7602c83612a19565b91506131e28261317b565b604082019050919050565b60006020820190508181036000830152613206816131ca565b9050919050565b7f4552433732313a20617070726f76616c20746f2063757272656e74206f776e6560008201527f7200000000000000000000000000000000000000000000000000000000000000602082015250565b6000613269602183612a19565b91506132748261320d565b604082019050919050565b600060208201905081810360008301526132988161325c565b9050919050565b7f4552433732313a20617070726f76652063616c6c6572206973206e6f74206f7760008201527f6e6572206e6f7220617070726f76656420666f7220616c6c0000000000000000602082015250565b60006132fb603883612a19565b91506133068261329f565b604082019050919050565b6000602082019050818103600083015261332a816132ee565b9050919050565b600081905092915050565b60006133488385613331565b9350613355838584612daa565b82840190509392505050565b600061336e82848661333c565b91508190509392505050565b7f4552433732313a207472616e736665722063616c6c6572206973206e6f74206f60008201527f776e6572206e6f7220617070726f766564000000000000000000000000000000602082015250565b60006133d6603183612a19565b91506133e18261337a565b604082019050919050565b60006020820190508181036000830152613405816133c9565b9050919050565b7f4552433732313a206f776e657220717565727920666f72206e6f6e657869737460008201527f656e7420746f6b656e0000000000000000000000000000000000000000000000602082015250565b6000613468602983612a19565b91506134738261340c565b604082019050919050565b600060208201905081810360008301526134978161345b565b9050919050565b7f4552433732313a2062616c616e636520717565727920666f7220746865207a6560008201527f726f206164647265737300000000000000000000000000000000000000000000602082015250565b60006134fa602a83612a19565b91506135058261349e565b604082019050919050565b60006020820190508181036000830152613529816134ed565b9050919050565b7f45524337323155524953746f726167653a2055524920717565727920666f722060008201527f6e6f6e6578697374656e7420746f6b656e000000000000000000000000000000602082015250565b600061358c603183612a19565b915061359782613530565b604082019050919050565b600060208201905081810360008301526135bb8161357f565b9050919050565b60006135cd82612a0e565b6135d78185613331565b93506135e7818560208601612a2a565b80840191505092915050565b60006135ff82856135c2565b915061360b82846135c2565b91508190509392505050565b7f4e6f7420656e6f756768204d6174696320706169640000000000000000000000600082015250565b600061364d601583612a19565b915061365882613617565b602082019050919050565b6000602082019050818103600083015261367c81613640565b9050919050565b7f2e00000000000000000000000000000000000000000000000000000000000000600082015250565b60006136b9600183613331565b91506136c482613683565b600182019050919050565b60008190508160005260206000209050919050565b600081546136f181613149565b6136fb8186613331565b9450600182166000811461371657600181146137275761375a565b60ff1983168652818601935061375a565b613730856136cf565b60005b8381101561375257815481890152600182019150602081019050613733565b838801955050505b50505092915050565b600061377082858761333c565b915061377b826136ac565b915061378782846136e4565b9150819050949350505050565b60006137a082866136e4565b91506137ac82856135c2565b91506137b882846136e4565b9150819050949350505050565b7f7b226e616d65223a202200000000000000000000000000000000000000000000600082015250565b60006137fb600a83613331565b9150613806826137c5565b600a82019050919050565b7f222c20226465736372697074696f6e223a20224120646f6d61696e206f6e207460008201527f6865204e696e6a61206e616d652073657276696365222c2022696d616765223a60208201527f2022646174613a696d6167652f7376672b786d6c3b6261736536342c00000000604082015250565b6000613893605c83613331565b915061389e82613811565b605c82019050919050565b7f222c226c656e677468223a220000000000000000000000000000000000000000600082015250565b60006138df600c83613331565b91506138ea826138a9565b600c82019050919050565b7f227d000000000000000000000000000000000000000000000000000000000000600082015250565b600061392b600283613331565b9150613936826138f5565b600282019050919050565b600061394c826137ee565b915061395882866135c2565b915061396382613886565b915061396f82856135c2565b915061397a826138d2565b915061398682846135c2565b91506139918261391e565b9150819050949350505050565b7f646174613a6170706c69636174696f6e2f6a736f6e3b6261736536342c000000600082015250565b60006139d4601d83613331565b91506139df8261399e565b601d82019050919050565b60006139f5826139c7565b9150613a0182846135c2565b915081905092915050565b60006040820190508181036000830152613a268185612a6e565b90508181036020830152613a3a8184612a6e565b90509392505050565b7f4552433732313a206f70657261746f7220717565727920666f72206e6f6e657860008201527f697374656e7420746f6b656e0000000000000000000000000000000000000000602082015250565b6000613a9f602c83612a19565b9150613aaa82613a43565b604082019050919050565b60006020820190508181036000830152613ace81613a92565b9050919050565b7f4552433732313a207472616e736665722066726f6d20696e636f72726563742060008201527f6f776e6572000000000000000000000000000000000000000000000000000000602082015250565b6000613b31602583612a19565b9150613b3c82613ad5565b604082019050919050565b60006020820190508181036000830152613b6081613b24565b9050919050565b7f4552433732313a207472616e7366657220746f20746865207a65726f2061646460008201527f7265737300000000000000000000000000000000000000000000000000000000602082015250565b6000613bc3602483612a19565b9150613bce82613b67565b604082019050919050565b60006020820190508181036000830152613bf281613bb6565b9050919050565b7f4e487b7100000000000000000000000000000000000000000000000000000000600052601160045260246000fd5b6000613c3382612ac9565b9150613c3e83612ac9565b925082821015613c5157613c50613bf9565b5b828203905092915050565b6000613c6782612ac9565b9150613c7283612ac9565b9250827fffffffffffffffffffffffffffffffffffffffffffffffffffffffffffffffff03821115613ca757613ca6613bf9565b5b828201905092915050565b7f4552433732313a20617070726f766520746f2063616c6c657200000000000000600082015250565b6000613ce8601983612a19565b9150613cf382613cb2565b602082019050919050565b60006020820190508181036000830152613d1781613cdb565b9050919050565b7f4552433732313a207472616e7366657220746f206e6f6e20455243373231526560008201527f63656976657220696d706c656d656e7465720000000000000000000000000000602082015250565b6000613d7a603283612a19565b9150613d8582613d1e565b604082019050919050565b60006020820190508181036000830152613da981613d6d565b9050919050565b7f4552433732314d657461646174613a2055524920717565727920666f72206e6f60008201527f6e6578697374656e7420746f6b656e0000000000000000000000000000000000602082015250565b6000613e0c602f83612a19565b9150613e1782613db0565b604082019050919050565b60006020820190508181036000830152613e3b81613dff565b9050919050565b7f4e487b7100000000000000000000000000000000000000000000000000000000600052603260045260246000fd5b6000613e7c82612ac9565b91507fffffffffffffffffffffffffffffffffffffffffffffffffffffffffffffffff821415613eaf57613eae613bf9565b5b600182019050919050565b7f4e487b7100000000000000000000000000000000000000000000000000000000600052601260045260246000fd5b6000613ef482612ac9565b9150613eff83612ac9565b925082613f0f57613f0e613eba565b5b828204905092915050565b6000613f2582612ac9565b9150613f3083612ac9565b925082613f4057613f3f613eba565b5b828206905092915050565b60006080820190508181036000830152613f658187612a6e565b90508181036020830152613f798186612a6e565b90508181036040830152613f8d8185612a6e565b9050613f9c6060830184612e9f565b95945050505050565b6000613fb082612ac9565b9150613fbb83612ac9565b9250817fffffffffffffffffffffffffffffffffffffffffffffffffffffffffffffffff0483118215151615613ff457613ff3613bf9565b5b828202905092915050565b7f45524337323155524953746f726167653a2055524920736574206f66206e6f6e60008201527f6578697374656e7420746f6b656e000000000000000000000000000000000000602082015250565b600061405b602e83612a19565b915061406682613fff565b604082019050919050565b6000602082019050818103600083015261408a8161404e565b9050919050565b600060408201905081810360008301526140ab8185612a6e565b90506140ba6020830184612b5e565b9392505050565b600081519050919050565b600082825260208201905092915050565b60006140e8826140c1565b6140f281856140cc565b9350614102818560208601612a2a565b61410b81612a5d565b840191505092915050565b600060808201905061412b6000830187612b5e565b6141386020830186612b5e565b6141456040830185612e9f565b818103606083015261415781846140dd565b905095945050505050565b6000815190506141718161297f565b92915050565b60006020828403121561418d5761418c612949565b5b600061419b84828501614162565b91505092915050565b7f4552433732313a206d696e7420746f20746865207a65726f2061646472657373600082015250565b60006141da602083612a19565b91506141e5826141a4565b602082019050919050565b60006020820190508181036000830152614209816141cd565b9050919050565b7f4552433732313a20746f6b656e20616c7265616479206d696e74656400000000600082015250565b6000614246601c83612a19565b915061425182614210565b602082019050919050565b6000602082019050818103600083015261427581614239565b905091905056fe0a2d2d2d2d2d2d2d2d2d2d2d2d2d2d2d2d2d2d2d2d2d2d2d2d2d2d2d2d2d2d2d2d2d2d2d2d2d2d2d2d2d2d2d2d2d2d2d2d2d2d2d2d2d2d2d2d5265676973746572696e672025732e2573206f6e2074686520636f6e7472616374207769746820746f6b656e49442025642d2d2d2d2d2d2d2d2d2d2d2d2d2d2d2d2d2d2d2d2d2d2d2d2d2d2d2d2d2d2d2d2d2d2d2d2d2d2d2d2d2d2d2d2d2d2d2d2d2d2d2d2d2d2d2d0a4142434445464748494a4b4c4d4e4f505152535455565758595a6162636465666768696a6b6c6d6e6f707172737475767778797a303132333435363738392b2fa2646970667358221220f8c68bed30974fd1e2ecb205c0434c83d5f1edceb7a2c31d5cfb992f746b749564736f6c634300080a00333c73766720786d6c6e733d22687474703a2f2f7777772e77332e6f72672f323030302f737667222077696474683d2232373022206865696768743d22323730222066696c6c3d226e6f6e65223e3c706174682066696c6c3d2275726c282342292220643d224d302030683237307632373048307a222f3e3c646566733e3c66696c7465722069643d22412220636f6c6f722d696e746572706f6c6174696f6e2d66696c746572733d2273524742222066696c746572556e6974733d227573657253706163654f6e55736522206865696768743d22323730222077696474683d22323730223e3c666544726f70536861646f772064783d2230222064793d22312220737464446576696174696f6e3d22322220666c6f6f642d6f7061636974793d222e323235222077696474683d223230302522206865696768743d2232303025222f3e3c2f66696c7465723e3c2f646566733e3c7061746820643d224d37322e3836332034322e393439632d2e3636382d2e3338372d312e3432362d2e35392d322e3139372d2e3539732d312e3532392e3230342d322e3139372e35396c2d31302e30383120362e3033322d362e383520332e3933342d31302e30383120362e303332632d2e3636382e3338372d312e3432362e35392d322e3139372e3539732d312e3532392d2e3230342d322e3139372d2e35396c2d382e3031332d342e37323161342e353220342e35322030203020312d312e3538392d312e363136632d2e3338342d2e3636352d2e3539342d312e3431382d2e3630382d322e313837762d392e3331632d2e3031332d2e3737352e3138352d312e3533382e3537322d322e32303861342e323520342e323520302030203120312e3632352d312e3539356c372e3838342d342e3539632e3636382d2e33383720312e3432362d2e353920322e3139372d2e353973312e3532392e32303420322e3139372e35396c372e38383420342e353961342e353220342e353220302030203120312e35383920312e363136632e3338342e3636352e35393420312e3431382e36303820322e31383776362e3033326c362e38352d342e303635762d362e303332632e3031332d2e3737352d2e3138352d312e3533382d2e3537322d322e32303861342e323520342e32352030203020302d312e3632352d312e3539354c34312e3435362032342e3539632d2e3636382d2e3338372d312e3432362d2e35392d322e3139372d2e3539732d312e3532392e3230342d322e3139372e35396c2d31342e38363420382e36353561342e323520342e32352030203020302d312e36323520312e353935632d2e3338372e36372d2e35383520312e3433342d2e35373220322e3230387631372e343431632d2e3031332e3737352e31383520312e3533382e35373220322e32303861342e323520342e323520302030203020312e36323520312e3539356c31342e38363420382e363535632e3636382e33383720312e3432362e353920322e3139372e353973312e3532392d2e32303420322e3139372d2e35396c31302e3038312d352e39303120362e38352d342e3036352031302e3038312d352e393031632e3636382d2e33383720312e3432362d2e353920322e3139372d2e353973312e3532392e32303420322e3139372e35396c372e38383420342e353961342e353220342e353220302030203120312e35383920312e363136632e3338342e3636352e35393420312e3431382e36303820322e31383776392e333131632e3031332e3737352d2e31383520312e3533382d2e35373220322e32303861342e323520342e32352030203020312d312e36323520312e3539356c2d372e38383420342e373231632d2e3636382e3338372d312e3432362e35392d322e3139372e3539732d312e3532392d2e3230342d322e3139372d2e35396c2d372e3838342d342e353961342e353220342e35322030203020312d312e3538392d312e363136632d2e3338352d2e3636352d2e3539342d312e3431382d2e3630382d322e313837762d362e3033326c2d362e383520342e30363576362e303332632d2e3031332e3737352e31383520312e3533382e35373220322e32303861342e323520342e323520302030203020312e36323520312e3539356c31342e38363420382e363535632e3636382e33383720312e3432362e353920322e3139372e353973312e3532392d2e32303420322e3139372d2e35396c31342e3836342d382e363535632e3635372d2e33393420312e3230342d2e393520312e3538392d312e363136732e3539342d312e3431382e3630392d322e3138375635352e353338632e3031332d2e3737352d2e3138352d312e3533382d2e3537322d322e32303861342e323520342e32352030203020302d312e3632352d312e3539356c2d31342e3939332d382e3738367a222066696c6c3d2223666666222f3e3c646566733e3c6c696e6561724772616469656e742069643d2242222078313d2230222079313d2230222078323d22323730222079323d2232373022206772616469656e74556e6974733d227573657253706163654f6e557365223e3c73746f702073746f702d636f6c6f723d2223636235656565222f3e3c73746f70206f66667365743d2231222073746f702d636f6c6f723d2223306364376534222073746f702d6f7061636974793d222e3939222f3e3c2f6c696e6561724772616469656e743e3c2f646566733e3c7465787420783d2233322e352220793d223233312220666f6e742d73697a653d223237222066696c6c3d2223666666222066696c7465723d2275726c282341292220666f6e742d66616d696c793d22506c7573204a616b617274612053616e732c44656a6156752053616e732c4e6f746f20436f6c6f7220456d6f6a692c4170706c6520436f6c6f7220456d6f6a692c73616e732d73657269662220666f6e742d7765696768743d22626f6c64223e",
  "linkReferences": {},
  "deployedLinkReferences": {}
}